{
  "_format": "hh-sol-artifact-1",
  "contractName": "MyEpicGame",
  "sourceName": "contracts/MyEpicGame.sol",
  "abi": [
    {
      "inputs": [
        {
          "internalType": "string[]",
          "name": "characterNames",
          "type": "string[]"
        },
        {
          "internalType": "string[]",
          "name": "characterImageURIs",
          "type": "string[]"
        },
        {
          "internalType": "uint256[]",
          "name": "characterHp",
          "type": "uint256[]"
        },
        {
          "internalType": "uint256[]",
          "name": "characterAttackDmg",
          "type": "uint256[]"
        },
        {
          "internalType": "string",
          "name": "bossName",
          "type": "string"
        },
        {
          "internalType": "string",
          "name": "bossImageURI",
          "type": "string"
        },
        {
          "internalType": "uint256",
          "name": "bossHp",
          "type": "uint256"
        },
        {
          "internalType": "uint256",
          "name": "bossAttackDamage",
          "type": "uint256"
        }
      ],
      "stateMutability": "nonpayable",
      "type": "constructor"
    },
    {
      "anonymous": false,
      "inputs": [
        {
          "indexed": true,
          "internalType": "address",
          "name": "owner",
          "type": "address"
        },
        {
          "indexed": true,
          "internalType": "address",
          "name": "approved",
          "type": "address"
        },
        {
          "indexed": true,
          "internalType": "uint256",
          "name": "tokenId",
          "type": "uint256"
        }
      ],
      "name": "Approval",
      "type": "event"
    },
    {
      "anonymous": false,
      "inputs": [
        {
          "indexed": true,
          "internalType": "address",
          "name": "owner",
          "type": "address"
        },
        {
          "indexed": true,
          "internalType": "address",
          "name": "operator",
          "type": "address"
        },
        {
          "indexed": false,
          "internalType": "bool",
          "name": "approved",
          "type": "bool"
        }
      ],
      "name": "ApprovalForAll",
      "type": "event"
    },
    {
      "anonymous": false,
      "inputs": [
        {
          "indexed": false,
          "internalType": "uint256",
          "name": "newBossHp",
          "type": "uint256"
        },
        {
          "indexed": false,
          "internalType": "uint256",
          "name": "newPlayerHp",
          "type": "uint256"
        }
      ],
      "name": "AttackComplete",
      "type": "event"
    },
    {
      "anonymous": false,
      "inputs": [
        {
          "indexed": false,
          "internalType": "address",
          "name": "sender",
          "type": "address"
        },
        {
          "indexed": false,
          "internalType": "uint256",
          "name": "tokenId",
          "type": "uint256"
        },
        {
          "indexed": false,
          "internalType": "uint256",
          "name": "characterIndex",
          "type": "uint256"
        }
      ],
      "name": "CharacterNFTMinted",
      "type": "event"
    },
    {
      "anonymous": false,
      "inputs": [
        {
          "indexed": true,
          "internalType": "address",
          "name": "from",
          "type": "address"
        },
        {
          "indexed": true,
          "internalType": "address",
          "name": "to",
          "type": "address"
        },
        {
          "indexed": true,
          "internalType": "uint256",
          "name": "tokenId",
          "type": "uint256"
        }
      ],
      "name": "Transfer",
      "type": "event"
    },
    {
      "inputs": [
        {
          "internalType": "address",
          "name": "to",
          "type": "address"
        },
        {
          "internalType": "uint256",
          "name": "tokenId",
          "type": "uint256"
        }
      ],
      "name": "approve",
      "outputs": [],
      "stateMutability": "nonpayable",
      "type": "function"
    },
    {
      "inputs": [],
      "name": "attackBoss",
      "outputs": [],
      "stateMutability": "nonpayable",
      "type": "function"
    },
    {
      "inputs": [
        {
          "internalType": "address",
          "name": "owner",
          "type": "address"
        }
      ],
      "name": "balanceOf",
      "outputs": [
        {
          "internalType": "uint256",
          "name": "",
          "type": "uint256"
        }
      ],
      "stateMutability": "view",
      "type": "function"
    },
    {
      "inputs": [],
      "name": "bigBoss",
      "outputs": [
        {
          "internalType": "string",
          "name": "name",
          "type": "string"
        },
        {
          "internalType": "string",
          "name": "imageURI",
          "type": "string"
        },
        {
          "internalType": "uint256",
          "name": "hp",
          "type": "uint256"
        },
        {
          "internalType": "uint256",
          "name": "maxHp",
          "type": "uint256"
        },
        {
          "internalType": "uint256",
          "name": "attackDamage",
          "type": "uint256"
        }
      ],
      "stateMutability": "view",
      "type": "function"
    },
    {
      "inputs": [],
      "name": "checkIfUserHasNFT",
      "outputs": [
        {
          "components": [
            {
              "internalType": "uint256",
              "name": "characterIndex",
              "type": "uint256"
            },
            {
              "internalType": "string",
              "name": "name",
              "type": "string"
            },
            {
              "internalType": "string",
              "name": "imageURI",
              "type": "string"
            },
            {
              "internalType": "uint256",
              "name": "hp",
              "type": "uint256"
            },
            {
              "internalType": "uint256",
              "name": "maxHp",
              "type": "uint256"
            },
            {
              "internalType": "uint256",
              "name": "attackDamage",
              "type": "uint256"
            }
          ],
          "internalType": "struct MyEpicGame.CharacterAttributes",
          "name": "",
          "type": "tuple"
        }
      ],
      "stateMutability": "view",
      "type": "function"
    },
    {
      "inputs": [],
      "name": "getAllDefaultCharacters",
      "outputs": [
        {
          "components": [
            {
              "internalType": "uint256",
              "name": "characterIndex",
              "type": "uint256"
            },
            {
              "internalType": "string",
              "name": "name",
              "type": "string"
            },
            {
              "internalType": "string",
              "name": "imageURI",
              "type": "string"
            },
            {
              "internalType": "uint256",
              "name": "hp",
              "type": "uint256"
            },
            {
              "internalType": "uint256",
              "name": "maxHp",
              "type": "uint256"
            },
            {
              "internalType": "uint256",
              "name": "attackDamage",
              "type": "uint256"
            }
          ],
          "internalType": "struct MyEpicGame.CharacterAttributes[]",
          "name": "",
          "type": "tuple[]"
        }
      ],
      "stateMutability": "view",
      "type": "function"
    },
    {
      "inputs": [
        {
          "internalType": "uint256",
          "name": "tokenId",
          "type": "uint256"
        }
      ],
      "name": "getApproved",
      "outputs": [
        {
          "internalType": "address",
          "name": "",
          "type": "address"
        }
      ],
      "stateMutability": "view",
      "type": "function"
    },
    {
      "inputs": [],
      "name": "getBoss",
      "outputs": [
        {
          "components": [
            {
              "internalType": "string",
              "name": "name",
              "type": "string"
            },
            {
              "internalType": "string",
              "name": "imageURI",
              "type": "string"
            },
            {
              "internalType": "uint256",
              "name": "hp",
              "type": "uint256"
            },
            {
              "internalType": "uint256",
              "name": "maxHp",
              "type": "uint256"
            },
            {
              "internalType": "uint256",
              "name": "attackDamage",
              "type": "uint256"
            }
          ],
          "internalType": "struct MyEpicGame.BigBoss",
          "name": "",
          "type": "tuple"
        }
      ],
      "stateMutability": "view",
      "type": "function"
    },
    {
      "inputs": [
        {
          "internalType": "address",
          "name": "owner",
          "type": "address"
        },
        {
          "internalType": "address",
          "name": "operator",
          "type": "address"
        }
      ],
      "name": "isApprovedForAll",
      "outputs": [
        {
          "internalType": "bool",
          "name": "",
          "type": "bool"
        }
      ],
      "stateMutability": "view",
      "type": "function"
    },
    {
      "inputs": [
        {
          "internalType": "uint256",
          "name": "_characterIndex",
          "type": "uint256"
        }
      ],
      "name": "mintCharacterNFT",
      "outputs": [],
      "stateMutability": "nonpayable",
      "type": "function"
    },
    {
      "inputs": [],
      "name": "name",
      "outputs": [
        {
          "internalType": "string",
          "name": "",
          "type": "string"
        }
      ],
      "stateMutability": "view",
      "type": "function"
    },
    {
      "inputs": [
        {
          "internalType": "uint256",
          "name": "",
          "type": "uint256"
        }
      ],
      "name": "nftHolderAttributes",
      "outputs": [
        {
          "internalType": "uint256",
          "name": "characterIndex",
          "type": "uint256"
        },
        {
          "internalType": "string",
          "name": "name",
          "type": "string"
        },
        {
          "internalType": "string",
          "name": "imageURI",
          "type": "string"
        },
        {
          "internalType": "uint256",
          "name": "hp",
          "type": "uint256"
        },
        {
          "internalType": "uint256",
          "name": "maxHp",
          "type": "uint256"
        },
        {
          "internalType": "uint256",
          "name": "attackDamage",
          "type": "uint256"
        }
      ],
      "stateMutability": "view",
      "type": "function"
    },
    {
      "inputs": [
        {
          "internalType": "address",
          "name": "",
          "type": "address"
        }
      ],
      "name": "nftHolders",
      "outputs": [
        {
          "internalType": "uint256",
          "name": "",
          "type": "uint256"
        }
      ],
      "stateMutability": "view",
      "type": "function"
    },
    {
      "inputs": [
        {
          "internalType": "uint256",
          "name": "tokenId",
          "type": "uint256"
        }
      ],
      "name": "ownerOf",
      "outputs": [
        {
          "internalType": "address",
          "name": "",
          "type": "address"
        }
      ],
      "stateMutability": "view",
      "type": "function"
    },
    {
      "inputs": [
        {
          "internalType": "address",
          "name": "from",
          "type": "address"
        },
        {
          "internalType": "address",
          "name": "to",
          "type": "address"
        },
        {
          "internalType": "uint256",
          "name": "tokenId",
          "type": "uint256"
        }
      ],
      "name": "safeTransferFrom",
      "outputs": [],
      "stateMutability": "nonpayable",
      "type": "function"
    },
    {
      "inputs": [
        {
          "internalType": "address",
          "name": "from",
          "type": "address"
        },
        {
          "internalType": "address",
          "name": "to",
          "type": "address"
        },
        {
          "internalType": "uint256",
          "name": "tokenId",
          "type": "uint256"
        },
        {
          "internalType": "bytes",
          "name": "_data",
          "type": "bytes"
        }
      ],
      "name": "safeTransferFrom",
      "outputs": [],
      "stateMutability": "nonpayable",
      "type": "function"
    },
    {
      "inputs": [
        {
          "internalType": "address",
          "name": "operator",
          "type": "address"
        },
        {
          "internalType": "bool",
          "name": "approved",
          "type": "bool"
        }
      ],
      "name": "setApprovalForAll",
      "outputs": [],
      "stateMutability": "nonpayable",
      "type": "function"
    },
    {
      "inputs": [
        {
          "internalType": "bytes4",
          "name": "interfaceId",
          "type": "bytes4"
        }
      ],
      "name": "supportsInterface",
      "outputs": [
        {
          "internalType": "bool",
          "name": "",
          "type": "bool"
        }
      ],
      "stateMutability": "view",
      "type": "function"
    },
    {
      "inputs": [],
      "name": "symbol",
      "outputs": [
        {
          "internalType": "string",
          "name": "",
          "type": "string"
        }
      ],
      "stateMutability": "view",
      "type": "function"
    },
    {
      "inputs": [
        {
          "internalType": "uint256",
          "name": "_tokenId",
          "type": "uint256"
        }
      ],
      "name": "tokenURI",
      "outputs": [
        {
          "internalType": "string",
          "name": "",
          "type": "string"
        }
      ],
      "stateMutability": "view",
      "type": "function"
    },
    {
      "inputs": [
        {
          "internalType": "address",
          "name": "from",
          "type": "address"
        },
        {
          "internalType": "address",
          "name": "to",
          "type": "address"
        },
        {
          "internalType": "uint256",
          "name": "tokenId",
          "type": "uint256"
        }
      ],
      "name": "transferFrom",
      "outputs": [],
      "stateMutability": "nonpayable",
      "type": "function"
    }
  ],
  "bytecode": "0x60806040523480156200001157600080fd5b506040516200572638038062005726833981810160405281019062000037919062000a5a565b6040518060400160405280600681526020017f4865726f657300000000000000000000000000000000000000000000000000008152506040518060400160405280600481526020017f4845524f000000000000000000000000000000000000000000000000000000008152508160009080519060200190620000bb929190620007ed565b508060019080519060200190620000d4929190620007ed565b5050506040518060a0016040528085815260200184815260200183815260200183815260200182815250600660008201518160000190805190602001906200011e929190620007ed565b5060208201518160010190805190602001906200013d929190620007ed565b50604082015181600201556060820151816003015560808201518160040155905050620002c06040518060600160405280602a8152602001620056fc602a9139600660000180546200018f9062000de5565b80601f0160208091040260200160405190810160405280929190818152602001828054620001bd9062000de5565b80156200020e5780601f10620001e2576101008083540402835291602001916200020e565b820191906000526020600020905b815481529060010190602001808311620001f057829003601f168201915b5050505050600660020154600660010180546200022b9062000de5565b80601f0160208091040260200160405190810160405280929190818152602001828054620002599062000de5565b8015620002aa5780601f106200027e57610100808354040283529160200191620002aa565b820191906000526020600020905b8154815290600101906020018083116200028c57829003601f168201915b50505050506200070260201b62001bd51760201c565b60005b8851811015620006f357600c6040518060c001604052808381526020018b84815181106200031a577f4e487b7100000000000000000000000000000000000000000000000000000000600052603260045260246000fd5b602002602001015181526020018a848151811062000361577f4e487b7100000000000000000000000000000000000000000000000000000000600052603260045260246000fd5b60200260200101518152602001898481518110620003a8577f4e487b7100000000000000000000000000000000000000000000000000000000600052603260045260246000fd5b60200260200101518152602001898481518110620003ef577f4e487b7100000000000000000000000000000000000000000000000000000000600052603260045260246000fd5b6020026020010151815260200188848151811062000436577f4e487b7100000000000000000000000000000000000000000000000000000000600052603260045260246000fd5b6020026020010151815250908060018154018082558091505060019003906000526020600020906006020160009091909190915060008201518160000155602082015181600101908051906020019062000492929190620007ed565b506040820151816002019080519060200190620004b1929190620007ed565b50606082015181600301556080820151816004015560a0820151816005015550506000600c82815481106200050f577f4e487b7100000000000000000000000000000000000000000000000000000000600052603260045260246000fd5b90600052602060002090600602016040518060c001604052908160008201548152602001600182018054620005449062000de5565b80601f0160208091040260200160405190810160405280929190818152602001828054620005729062000de5565b8015620005c35780601f106200059757610100808354040283529160200191620005c3565b820191906000526020600020905b815481529060010190602001808311620005a557829003601f168201915b50505050508152602001600282018054620005de9062000de5565b80601f01602080910402602001604051908101604052809291908181526020018280546200060c9062000de5565b80156200065d5780601f1062000631576101008083540402835291602001916200065d565b820191906000526020600020905b8154815290600101906020018083116200063f57829003601f168201915b5050505050815260200160038201548152602001600482015481526020016005820154815250509050620006c4604051806060016040528060258152602001620056d7602591398260200151836060015184604001516200070260201b62001bd51760201c565b620006db600b620007ae60201b62001c771760201c565b50600181620006eb919062000d48565b9050620002c3565b50505050505050505062000ed3565b620007a8848484846040516024016200071f949392919062000c05565b6040516020818303038152906040527f8d142cdd000000000000000000000000000000000000000000000000000000007bffffffffffffffffffffffffffffffffffffffffffffffffffffffff19166020820180517bffffffffffffffffffffffffffffffffffffffffffffffffffffffff8381831617835250505050620007c460201b60201c565b50505050565b6001816000016000828254019250508190555050565b60008151905060006a636f6e736f6c652e6c6f679050602083016000808483855afa5050505050565b828054620007fb9062000de5565b90600052602060002090601f0160209004810192826200081f57600085556200086b565b82601f106200083a57805160ff19168380011785556200086b565b828001600101855582156200086b579182015b828111156200086a5782518255916020019190600101906200084d565b5b5090506200087a91906200087e565b5090565b5b80821115620008995760008160009055506001016200087f565b5090565b6000620008b4620008ae8462000c9b565b62000c67565b9050808382526020820190508260005b85811015620008f85781518501620008dd888262000a16565b845260208401935060208301925050600181019050620008c4565b5050509392505050565b600062000919620009138462000cca565b62000c67565b905080838252602082019050828560208602820111156200093957600080fd5b60005b858110156200096d578162000952888262000a43565b8452602084019350602083019250506001810190506200093c565b5050509392505050565b60006200098e620009888462000cf9565b62000c67565b905082815260208101848484011115620009a757600080fd5b620009b484828562000daf565b509392505050565b600082601f830112620009ce57600080fd5b8151620009e08482602086016200089d565b91505092915050565b600082601f830112620009fb57600080fd5b815162000a0d84826020860162000902565b91505092915050565b600082601f83011262000a2857600080fd5b815162000a3a84826020860162000977565b91505092915050565b60008151905062000a548162000eb9565b92915050565b600080600080600080600080610100898b03121562000a7857600080fd5b600089015167ffffffffffffffff81111562000a9357600080fd5b62000aa18b828c01620009bc565b985050602089015167ffffffffffffffff81111562000abf57600080fd5b62000acd8b828c01620009bc565b975050604089015167ffffffffffffffff81111562000aeb57600080fd5b62000af98b828c01620009e9565b965050606089015167ffffffffffffffff81111562000b1757600080fd5b62000b258b828c01620009e9565b955050608089015167ffffffffffffffff81111562000b4357600080fd5b62000b518b828c0162000a16565b94505060a089015167ffffffffffffffff81111562000b6f57600080fd5b62000b7d8b828c0162000a16565b93505060c062000b908b828c0162000a43565b92505060e062000ba38b828c0162000a43565b9150509295985092959890939650565b600062000bc08262000d2c565b62000bcc818562000d37565b935062000bde81856020860162000daf565b62000be98162000ea8565b840191505092915050565b62000bff8162000da5565b82525050565b6000608082019050818103600083015262000c21818762000bb3565b9050818103602083015262000c37818662000bb3565b905062000c48604083018562000bf4565b818103606083015262000c5c818462000bb3565b905095945050505050565b6000604051905081810181811067ffffffffffffffff8211171562000c915762000c9062000e79565b5b8060405250919050565b600067ffffffffffffffff82111562000cb95762000cb862000e79565b5b602082029050602081019050919050565b600067ffffffffffffffff82111562000ce85762000ce762000e79565b5b602082029050602081019050919050565b600067ffffffffffffffff82111562000d175762000d1662000e79565b5b601f19601f8301169050602081019050919050565b600081519050919050565b600082825260208201905092915050565b600062000d558262000da5565b915062000d628362000da5565b9250827fffffffffffffffffffffffffffffffffffffffffffffffffffffffffffffffff0382111562000d9a5762000d9962000e1b565b5b828201905092915050565b6000819050919050565b60005b8381101562000dcf57808201518184015260208101905062000db2565b8381111562000ddf576000848401525b50505050565b6000600282049050600182168062000dfe57607f821691505b6020821081141562000e155762000e1462000e4a565b5b50919050565b7f4e487b7100000000000000000000000000000000000000000000000000000000600052601160045260246000fd5b7f4e487b7100000000000000000000000000000000000000000000000000000000600052602260045260246000fd5b7f4e487b7100000000000000000000000000000000000000000000000000000000600052604160045260246000fd5b6000601f19601f8301169050919050565b62000ec48162000da5565b811462000ed057600080fd5b50565b6147f48062000ee36000396000f3fe608060405234801561001057600080fd5b50600436106101375760003560e01c806398da4c95116100b8578063c76d9e7d1161007c578063c76d9e7d14610369578063c87b56dd14610387578063c8cf27f4146103b7578063d4f24c5b146103d5578063e985e9c5146103df578063f8b81ef71461040f57610137565b806398da4c95146102bc578063a22cb465146102f1578063a9c326791461030d578063b88d4fde1461032f578063b953084e1461034b57610137565b806342842e0e116100ff57806342842e0e146101f25780636352211e1461020e57806370a082311461023e5780637df124a11461026e57806395d89b411461029e57610137565b806301ffc9a71461013c57806306fdde031461016c578063081812fc1461018a578063095ea7b3146101ba57806323b872dd146101d6575b600080fd5b61015660048036038101906101519190612ffd565b61042b565b6040516101639190613da9565b60405180910390f35b61017461050d565b6040516101819190613dc4565b60405180910390f35b6101a4600480360381019061019f919061304f565b61059f565b6040516101b19190613ce9565b60405180910390f35b6101d460048036038101906101cf9190612fc1565b610624565b005b6101f060048036038101906101eb9190612ebb565b61073c565b005b61020c60048036038101906102079190612ebb565b61079c565b005b6102286004803603810190610223919061304f565b6107bc565b6040516102359190613ce9565b60405180910390f35b61025860048036038101906102539190612e56565b61086e565b6040516102659190614186565b60405180910390f35b61028860048036038101906102839190612e56565b610926565b6040516102959190614186565b60405180910390f35b6102a661093e565b6040516102b39190613dc4565b60405180910390f35b6102d660048036038101906102d1919061304f565b6109d0565b6040516102e8969594939291906141a1565b60405180910390f35b61030b60048036038101906103069190612f85565b610b1c565b005b610315610b32565b604051610326959493929190613e93565b60405180910390f35b61034960048036038101906103449190612f0a565b610c66565b005b610353610cc8565b6040516103609190613d87565b60405180910390f35b610371610e73565b60405161037e9190614142565b60405180910390f35b6103a1600480360381019061039c919061304f565b610fcf565b6040516103ae9190613dc4565b60405180910390f35b6103bf6111ea565b6040516103cc9190614164565b60405180910390f35b6103dd6113c2565b005b6103f960048036038101906103f49190612e7f565b61174d565b6040516104069190613da9565b60405180910390f35b6104296004803603810190610424919061304f565b6117e1565b005b60007f80ac58cd000000000000000000000000000000000000000000000000000000007bffffffffffffffffffffffffffffffffffffffffffffffffffffffff1916827bffffffffffffffffffffffffffffffffffffffffffffffffffffffff191614806104f657507f5b5e139f000000000000000000000000000000000000000000000000000000007bffffffffffffffffffffffffffffffffffffffffffffffffffffffff1916827bffffffffffffffffffffffffffffffffffffffffffffffffffffffff1916145b80610506575061050582611c8d565b5b9050919050565b60606000805461051c906144f2565b80601f0160208091040260200160405190810160405280929190818152602001828054610548906144f2565b80156105955780601f1061056a57610100808354040283529160200191610595565b820191906000526020600020905b81548152906001019060200180831161057857829003601f168201915b5050505050905090565b60006105aa82611cf7565b6105e9576040517f08c379a00000000000000000000000000000000000000000000000000000000081526004016105e0906140c2565b60405180910390fd5b6004600083815260200190815260200160002060009054906101000a900473ffffffffffffffffffffffffffffffffffffffff169050919050565b600061062f826107bc565b90508073ffffffffffffffffffffffffffffffffffffffff168373ffffffffffffffffffffffffffffffffffffffff1614156106a0576040517f08c379a000000000000000000000000000000000000000000000000000000000815260040161069790614102565b60405180910390fd5b8073ffffffffffffffffffffffffffffffffffffffff166106bf611d63565b73ffffffffffffffffffffffffffffffffffffffff1614806106ee57506106ed816106e8611d63565b61174d565b5b61072d576040517f08c379a000000000000000000000000000000000000000000000000000000000815260040161072490614022565b60405180910390fd5b6107378383611d6b565b505050565b61074d610747611d63565b82611e24565b61078c576040517f08c379a000000000000000000000000000000000000000000000000000000000815260040161078390614122565b60405180910390fd5b610797838383611f02565b505050565b6107b783838360405180602001604052806000815250610c66565b505050565b6000806002600084815260200190815260200160002060009054906101000a900473ffffffffffffffffffffffffffffffffffffffff169050600073ffffffffffffffffffffffffffffffffffffffff168173ffffffffffffffffffffffffffffffffffffffff161415610865576040517f08c379a000000000000000000000000000000000000000000000000000000000815260040161085c90614062565b60405180910390fd5b80915050919050565b60008073ffffffffffffffffffffffffffffffffffffffff168273ffffffffffffffffffffffffffffffffffffffff1614156108df576040517f08c379a00000000000000000000000000000000000000000000000000000000081526004016108d690614042565b60405180910390fd5b600360008373ffffffffffffffffffffffffffffffffffffffff1673ffffffffffffffffffffffffffffffffffffffff168152602001908152602001600020549050919050565b600e6020528060005260406000206000915090505481565b60606001805461094d906144f2565b80601f0160208091040260200160405190810160405280929190818152602001828054610979906144f2565b80156109c65780601f1061099b576101008083540402835291602001916109c6565b820191906000526020600020905b8154815290600101906020018083116109a957829003601f168201915b5050505050905090565b600d6020528060005260406000206000915090508060000154908060010180546109f9906144f2565b80601f0160208091040260200160405190810160405280929190818152602001828054610a25906144f2565b8015610a725780601f10610a4757610100808354040283529160200191610a72565b820191906000526020600020905b815481529060010190602001808311610a5557829003601f168201915b505050505090806002018054610a87906144f2565b80601f0160208091040260200160405190810160405280929190818152602001828054610ab3906144f2565b8015610b005780601f10610ad557610100808354040283529160200191610b00565b820191906000526020600020905b815481529060010190602001808311610ae357829003601f168201915b5050505050908060030154908060040154908060050154905086565b610b2e610b27611d63565b838361215e565b5050565b6006806000018054610b43906144f2565b80601f0160208091040260200160405190810160405280929190818152602001828054610b6f906144f2565b8015610bbc5780601f10610b9157610100808354040283529160200191610bbc565b820191906000526020600020905b815481529060010190602001808311610b9f57829003601f168201915b505050505090806001018054610bd1906144f2565b80601f0160208091040260200160405190810160405280929190818152602001828054610bfd906144f2565b8015610c4a5780601f10610c1f57610100808354040283529160200191610c4a565b820191906000526020600020905b815481529060010190602001808311610c2d57829003601f168201915b5050505050908060020154908060030154908060040154905085565b610c77610c71611d63565b83611e24565b610cb6576040517f08c379a0000000000000000000000000000000000000000000000000000000008152600401610cad90614122565b60405180910390fd5b610cc2848484846122cb565b50505050565b6060600c805480602002602001604051908101604052809291908181526020016000905b82821015610e6a57838290600052602060002090600602016040518060c001604052908160008201548152602001600182018054610d29906144f2565b80601f0160208091040260200160405190810160405280929190818152602001828054610d55906144f2565b8015610da25780601f10610d7757610100808354040283529160200191610da2565b820191906000526020600020905b815481529060010190602001808311610d8557829003601f168201915b50505050508152602001600282018054610dbb906144f2565b80601f0160208091040260200160405190810160405280929190818152602001828054610de7906144f2565b8015610e345780601f10610e0957610100808354040283529160200191610e34565b820191906000526020600020905b815481529060010190602001808311610e1757829003601f168201915b50505050508152602001600382015481526020016004820154815260200160058201548152505081526020019060010190610cec565b50505050905090565b610e7b612c7d565b60066040518060a0016040529081600082018054610e98906144f2565b80601f0160208091040260200160405190810160405280929190818152602001828054610ec4906144f2565b8015610f115780601f10610ee657610100808354040283529160200191610f11565b820191906000526020600020905b815481529060010190602001808311610ef457829003601f168201915b50505050508152602001600182018054610f2a906144f2565b80601f0160208091040260200160405190810160405280929190818152602001828054610f56906144f2565b8015610fa35780601f10610f7857610100808354040283529160200191610fa3565b820191906000526020600020905b815481529060010190602001808311610f8657829003601f168201915b505050505081526020016002820154815260200160038201548152602001600482015481525050905090565b60606000600d60008481526020019081526020016000206040518060c00160405290816000820154815260200160018201805461100b906144f2565b80601f0160208091040260200160405190810160405280929190818152602001828054611037906144f2565b80156110845780601f1061105957610100808354040283529160200191611084565b820191906000526020600020905b81548152906001019060200180831161106757829003601f168201915b5050505050815260200160028201805461109d906144f2565b80601f01602080910402602001604051908101604052809291908181526020018280546110c9906144f2565b80156111165780601f106110eb57610100808354040283529160200191611116565b820191906000526020600020905b8154815290600101906020018083116110f957829003601f168201915b5050505050815260200160038201548152602001600482015481526020016005820154815250509050600061114e8260600151612327565b9050600061115f8360800151612327565b905060006111708460a00151612327565b905060006111b6856020015161118589612327565b87604001518787876040516020016111a296959493929190613c22565b6040516020818303038152906040526124d4565b90506000816040516020016111cb9190613cc7565b6040516020818303038152906040529050809650505050505050919050565b6111f2612cac565b6000600e60003373ffffffffffffffffffffffffffffffffffffffff1673ffffffffffffffffffffffffffffffffffffffff16815260200190815260200160002054905060008111156113b157600d60008281526020019081526020016000206040518060c001604052908160008201548152602001600182018054611277906144f2565b80601f01602080910402602001604051908101604052809291908181526020018280546112a3906144f2565b80156112f05780601f106112c5576101008083540402835291602001916112f0565b820191906000526020600020905b8154815290600101906020018083116112d357829003601f168201915b50505050508152602001600282018054611309906144f2565b80601f0160208091040260200160405190810160405280929190818152602001828054611335906144f2565b80156113825780601f1061135757610100808354040283529160200191611382565b820191906000526020600020905b81548152906001019060200180831161136557829003601f168201915b5050505050815260200160038201548152602001600482015481526020016005820154815250509150506113bf565b6113b9612cac565b80925050505b90565b6000600e60003373ffffffffffffffffffffffffffffffffffffffff1673ffffffffffffffffffffffffffffffffffffffff1681526020019081526020016000205490506000600d600083815260200190815260200160002090506114d56040518060600160405280603c8152602001614783603c9139826001018054611448906144f2565b80601f0160208091040260200160405190810160405280929190818152602001828054611474906144f2565b80156114c15780601f10611496576101008083540402835291602001916114c1565b820191906000526020600020905b8154815290600101906020018083116114a457829003601f168201915b505050505083600301548460050154612673565b6115ad6040518060400160405280601b81526020017f426f73732025732068617320257320485020616e6420257320414400000000008152506006600001805461151e906144f2565b80601f016020809104026020016040519081016040528092919081815260200182805461154a906144f2565b80156115975780601f1061156c57610100808354040283529160200191611597565b820191906000526020600020905b81548152906001019060200180831161157a57829003601f168201915b5050505050600660020154600660040154612673565b60008160030154116115f4576040517f08c379a00000000000000000000000000000000000000000000000000000000081526004016115eb90614082565b60405180910390fd5b60006006600201541161163c576040517f08c379a000000000000000000000000000000000000000000000000000000000815260040161163390613f82565b60405180910390fd5b8060050154600660020154101561165d57600060066002018190555061167c565b80600501546006600201546116729190614408565b6006600201819055505b6006600401548160030154101561169c57600081600301819055506116ba565b60066004015481600301546116b19190614408565b81600301819055505b6116e16040518060600160405280602581526020016146c860259139600660020154612715565b61170760405180606001604052806028815260200161472d602891398260030154612715565b7f838ab28464562786a6c4ab2311964b82fa60bd9b14aa7e856af1f3f18d41a4146006600201548260030154604051611741929190614210565b60405180910390a15050565b6000600560008473ffffffffffffffffffffffffffffffffffffffff1673ffffffffffffffffffffffffffffffffffffffff16815260200190815260200160002060008373ffffffffffffffffffffffffffffffffffffffff1673ffffffffffffffffffffffffffffffffffffffff16815260200190815260200160002060009054906101000a900460ff16905092915050565b60006117ed600b6127b1565b90506117f933826127bf565b6040518060c00160405280838152602001600c8481548110611844577f4e487b7100000000000000000000000000000000000000000000000000000000600052603260045260246000fd5b90600052602060002090600602016001018054611860906144f2565b80601f016020809104026020016040519081016040528092919081815260200182805461188c906144f2565b80156118d95780601f106118ae576101008083540402835291602001916118d9565b820191906000526020600020905b8154815290600101906020018083116118bc57829003601f168201915b50505050508152602001600c848154811061191d577f4e487b7100000000000000000000000000000000000000000000000000000000600052603260045260246000fd5b90600052602060002090600602016002018054611939906144f2565b80601f0160208091040260200160405190810160405280929190818152602001828054611965906144f2565b80156119b25780601f10611987576101008083540402835291602001916119b2565b820191906000526020600020905b81548152906001019060200180831161199557829003601f168201915b50505050508152602001600c84815481106119f6577f4e487b7100000000000000000000000000000000000000000000000000000000600052603260045260246000fd5b9060005260206000209060060201600301548152602001600c8481548110611a47577f4e487b7100000000000000000000000000000000000000000000000000000000600052603260045260246000fd5b9060005260206000209060060201600401548152602001600c8481548110611a98577f4e487b7100000000000000000000000000000000000000000000000000000000600052603260045260246000fd5b906000526020600020906006020160050154815250600d6000838152602001908152602001600020600082015181600001556020820151816001019080519060200190611ae6929190612ce2565b506040820151816002019080519060200190611b03929190612ce2565b50606082015181600301556080820151816004015560a08201518160050155905050611b486040518060600160405280602e8152602001614755602e913982846127dd565b80600e60003373ffffffffffffffffffffffffffffffffffffffff1673ffffffffffffffffffffffffffffffffffffffff16815260200190815260200160002081905550611b96600b611c77565b7f4bc303fd457a97b4691b9af582ce71868a3d258638c8d4f8c60988a0f0bfb8cd338284604051611bc993929190613d50565b60405180910390a15050565b611c7184848484604051602401611bef9493929190613de6565b6040516020818303038152906040527f8d142cdd000000000000000000000000000000000000000000000000000000007bffffffffffffffffffffffffffffffffffffffffffffffffffffffff19166020820180517bffffffffffffffffffffffffffffffffffffffffffffffffffffffff838183161783525050505061287c565b50505050565b6001816000016000828254019250508190555050565b60007f01ffc9a7000000000000000000000000000000000000000000000000000000007bffffffffffffffffffffffffffffffffffffffffffffffffffffffff1916827bffffffffffffffffffffffffffffffffffffffffffffffffffffffff1916149050919050565b60008073ffffffffffffffffffffffffffffffffffffffff166002600084815260200190815260200160002060009054906101000a900473ffffffffffffffffffffffffffffffffffffffff1673ffffffffffffffffffffffffffffffffffffffff1614159050919050565b600033905090565b816004600083815260200190815260200160002060006101000a81548173ffffffffffffffffffffffffffffffffffffffff021916908373ffffffffffffffffffffffffffffffffffffffff160217905550808273ffffffffffffffffffffffffffffffffffffffff16611dde836107bc565b73ffffffffffffffffffffffffffffffffffffffff167f8c5be1e5ebec7d5bd14f71427d1e84f3dd0314c0f7b2291e5b200ac8c7c3b92560405160405180910390a45050565b6000611e2f82611cf7565b611e6e576040517f08c379a0000000000000000000000000000000000000000000000000000000008152600401611e6590614002565b60405180910390fd5b6000611e79836107bc565b90508073ffffffffffffffffffffffffffffffffffffffff168473ffffffffffffffffffffffffffffffffffffffff161480611ee857508373ffffffffffffffffffffffffffffffffffffffff16611ed08461059f565b73ffffffffffffffffffffffffffffffffffffffff16145b80611ef95750611ef8818561174d565b5b91505092915050565b8273ffffffffffffffffffffffffffffffffffffffff16611f22826107bc565b73ffffffffffffffffffffffffffffffffffffffff1614611f78576040517f08c379a0000000000000000000000000000000000000000000000000000000008152600401611f6f906140e2565b60405180910390fd5b600073ffffffffffffffffffffffffffffffffffffffff168273ffffffffffffffffffffffffffffffffffffffff161415611fe8576040517f08c379a0000000000000000000000000000000000000000000000000000000008152600401611fdf90613fc2565b60405180910390fd5b611ff38383836128a5565b611ffe600082611d6b565b6001600360008573ffffffffffffffffffffffffffffffffffffffff1673ffffffffffffffffffffffffffffffffffffffff168152602001908152602001600020600082825461204e9190614408565b925050819055506001600360008473ffffffffffffffffffffffffffffffffffffffff1673ffffffffffffffffffffffffffffffffffffffff16815260200190815260200160002060008282546120a59190614327565b92505081905550816002600083815260200190815260200160002060006101000a81548173ffffffffffffffffffffffffffffffffffffffff021916908373ffffffffffffffffffffffffffffffffffffffff160217905550808273ffffffffffffffffffffffffffffffffffffffff168473ffffffffffffffffffffffffffffffffffffffff167fddf252ad1be2c89b69c2b068fc378daa952ba7f163c4a11628f55a4df523b3ef60405160405180910390a4505050565b8173ffffffffffffffffffffffffffffffffffffffff168373ffffffffffffffffffffffffffffffffffffffff1614156121cd576040517f08c379a00000000000000000000000000000000000000000000000000000000081526004016121c490613fe2565b60405180910390fd5b80600560008573ffffffffffffffffffffffffffffffffffffffff1673ffffffffffffffffffffffffffffffffffffffff16815260200190815260200160002060008473ffffffffffffffffffffffffffffffffffffffff1673ffffffffffffffffffffffffffffffffffffffff16815260200190815260200160002060006101000a81548160ff0219169083151502179055508173ffffffffffffffffffffffffffffffffffffffff168373ffffffffffffffffffffffffffffffffffffffff167f17307eab39ab6107e8899845ad3d59bd9653f200f220920489ca2b5937696c31836040516122be9190613da9565b60405180910390a3505050565b6122d6848484611f02565b6122e2848484846128aa565b612321576040517f08c379a000000000000000000000000000000000000000000000000000000000815260040161231890613f62565b60405180910390fd5b50505050565b6060600082141561236f576040518060400160405280600181526020017f300000000000000000000000000000000000000000000000000000000000000081525090506124cf565b600082905060005b600082146123a157808061238a90614524565b915050600a8261239a919061437d565b9150612377565b60008167ffffffffffffffff8111156123e3577f4e487b7100000000000000000000000000000000000000000000000000000000600052604160045260246000fd5b6040519080825280601f01601f1916602001820160405280156124155781602001600182028036833780820191505090505b5090505b600085146124c85760018261242e9190614408565b9150600a8561243d919061456d565b60306124499190614327565b60f81b818381518110612485577f4e487b7100000000000000000000000000000000000000000000000000000000600052603260045260246000fd5b60200101907effffffffffffffffffffffffffffffffffffffffffffffffffffffffffffff1916908160001a905350600a856124c1919061437d565b9450612419565b8093505050505b919050565b60606000825114156124f75760405180602001604052806000815250905061266e565b60006040518060600160405280604081526020016146ed60409139905060006003600285516125269190614327565b612530919061437d565b600461253c91906143ae565b9050600060208261254d9190614327565b67ffffffffffffffff81111561258c577f4e487b7100000000000000000000000000000000000000000000000000000000600052604160045260246000fd5b6040519080825280601f01601f1916602001820160405280156125be5781602001600182028036833780820191505090505b509050818152600183018586518101602084015b8183101561262d576003830192508251603f8160121c168501518253600182019150603f81600c1c168501518253600182019150603f8160061c168501518253600182019150603f81168501518253600182019150506125d2565b600389510660018114612647576002811461265757612662565b613d3d60f01b6002830352612662565b603d60f81b60018303525b50505050508093505050505b919050565b61270f8484848460405160240161268d9493929190613e40565b6040516020818303038152906040527fd5cf17d0000000000000000000000000000000000000000000000000000000007bffffffffffffffffffffffffffffffffffffffffffffffffffffffff19166020820180517bffffffffffffffffffffffffffffffffffffffffffffffffffffffff838183161783525050505061287c565b50505050565b6127ad828260405160240161272b929190613ef4565b6040516020818303038152906040527f9710a9d0000000000000000000000000000000000000000000000000000000007bffffffffffffffffffffffffffffffffffffffffffffffffffffffff19166020820180517bffffffffffffffffffffffffffffffffffffffffffffffffffffffff838183161783525050505061287c565b5050565b600081600001549050919050565b6127d9828260405180602001604052806000815250612a41565b5050565b6128778383836040516024016127f593929190613f24565b6040516020818303038152906040527f969cdd03000000000000000000000000000000000000000000000000000000007bffffffffffffffffffffffffffffffffffffffffffffffffffffffff19166020820180517bffffffffffffffffffffffffffffffffffffffffffffffffffffffff838183161783525050505061287c565b505050565b60008151905060006a636f6e736f6c652e6c6f679050602083016000808483855afa5050505050565b505050565b60006128cb8473ffffffffffffffffffffffffffffffffffffffff16612a9c565b15612a34578373ffffffffffffffffffffffffffffffffffffffff1663150b7a026128f4611d63565b8786866040518563ffffffff1660e01b81526004016129169493929190613d04565b602060405180830381600087803b15801561293057600080fd5b505af192505050801561296157506040513d601f19601f8201168201806040525081019061295e9190613026565b60015b6129e4573d8060008114612991576040519150601f19603f3d011682016040523d82523d6000602084013e612996565b606091505b506000815114156129dc576040517f08c379a00000000000000000000000000000000000000000000000000000000081526004016129d390613f62565b60405180910390fd5b805181602001fd5b63150b7a0260e01b7bffffffffffffffffffffffffffffffffffffffffffffffffffffffff1916817bffffffffffffffffffffffffffffffffffffffffffffffffffffffff191614915050612a39565b600190505b949350505050565b612a4b8383612aaf565b612a5860008484846128aa565b612a97576040517f08c379a0000000000000000000000000000000000000000000000000000000008152600401612a8e90613f62565b60405180910390fd5b505050565b600080823b905060008111915050919050565b600073ffffffffffffffffffffffffffffffffffffffff168273ffffffffffffffffffffffffffffffffffffffff161415612b1f576040517f08c379a0000000000000000000000000000000000000000000000000000000008152600401612b16906140a2565b60405180910390fd5b612b2881611cf7565b15612b68576040517f08c379a0000000000000000000000000000000000000000000000000000000008152600401612b5f90613fa2565b60405180910390fd5b612b74600083836128a5565b6001600360008473ffffffffffffffffffffffffffffffffffffffff1673ffffffffffffffffffffffffffffffffffffffff1681526020019081526020016000206000828254612bc49190614327565b92505081905550816002600083815260200190815260200160002060006101000a81548173ffffffffffffffffffffffffffffffffffffffff021916908373ffffffffffffffffffffffffffffffffffffffff160217905550808273ffffffffffffffffffffffffffffffffffffffff16600073ffffffffffffffffffffffffffffffffffffffff167fddf252ad1be2c89b69c2b068fc378daa952ba7f163c4a11628f55a4df523b3ef60405160405180910390a45050565b6040518060a0016040528060608152602001606081526020016000815260200160008152602001600081525090565b6040518060c001604052806000815260200160608152602001606081526020016000815260200160008152602001600081525090565b828054612cee906144f2565b90600052602060002090601f016020900481019282612d105760008555612d57565b82601f10612d2957805160ff1916838001178555612d57565b82800160010185558215612d57579182015b82811115612d56578251825591602001919060010190612d3b565b5b509050612d649190612d68565b5090565b5b80821115612d81576000816000905550600101612d69565b5090565b6000612d98612d938461426a565b614239565b905082815260208101848484011115612db057600080fd5b612dbb8482856144b0565b509392505050565b600081359050612dd28161466b565b92915050565b600081359050612de781614682565b92915050565b600081359050612dfc81614699565b92915050565b600081519050612e1181614699565b92915050565b600082601f830112612e2857600080fd5b8135612e38848260208601612d85565b91505092915050565b600081359050612e50816146b0565b92915050565b600060208284031215612e6857600080fd5b6000612e7684828501612dc3565b91505092915050565b60008060408385031215612e9257600080fd5b6000612ea085828601612dc3565b9250506020612eb185828601612dc3565b9150509250929050565b600080600060608486031215612ed057600080fd5b6000612ede86828701612dc3565b9350506020612eef86828701612dc3565b9250506040612f0086828701612e41565b9150509250925092565b60008060008060808587031215612f2057600080fd5b6000612f2e87828801612dc3565b9450506020612f3f87828801612dc3565b9350506040612f5087828801612e41565b925050606085013567ffffffffffffffff811115612f6d57600080fd5b612f7987828801612e17565b91505092959194509250565b60008060408385031215612f9857600080fd5b6000612fa685828601612dc3565b9250506020612fb785828601612dd8565b9150509250929050565b60008060408385031215612fd457600080fd5b6000612fe285828601612dc3565b9250506020612ff385828601612e41565b9150509250929050565b60006020828403121561300f57600080fd5b600061301d84828501612ded565b91505092915050565b60006020828403121561303857600080fd5b600061304684828501612e02565b91505092915050565b60006020828403121561306157600080fd5b600061306f84828501612e41565b91505092915050565b60006130848383613ae4565b905092915050565b6130958161443c565b82525050565b60006130a6826142aa565b6130b081856142d8565b9350836020820285016130c28561429a565b8060005b858110156130fe57848403895281516130df8582613078565b94506130ea836142cb565b925060208a019950506001810190506130c6565b50829750879550505050505092915050565b6131198161444e565b82525050565b600061312a826142b5565b61313481856142e9565b93506131448185602086016144bf565b61314d8161465a565b840191505092915050565b6000613163826142c0565b61316d81856142fa565b935061317d8185602086016144bf565b6131868161465a565b840191505092915050565b600061319c826142c0565b6131a6818561430b565b93506131b68185602086016144bf565b6131bf8161465a565b840191505092915050565b60006131d5826142c0565b6131df818561431c565b93506131ef8185602086016144bf565b80840191505092915050565b6000613208600b8361431c565b91507f202d2d204e465420233a200000000000000000000000000000000000000000006000830152600b82019050919050565b600061324860328361430b565b91507f4552433732313a207472616e7366657220746f206e6f6e20455243373231526560008301527f63656976657220696d706c656d656e74657200000000000000000000000000006020830152604082019050919050565b60006132ae60288361430b565b91507f4572726f723a20626f7373206d757374206861766520485020746f206174746160008301527f636b20626f73732e0000000000000000000000000000000000000000000000006020830152604082019050919050565b6000613314601c8361430b565b91507f4552433732313a20746f6b656e20616c7265616479206d696e746564000000006000830152602082019050919050565b6000613354602d8361431c565b91507f7d2c207b202274726169745f74797065223a20224865616c746820506f696e7460008301527f73222c202276616c7565223a20000000000000000000000000000000000000006020830152602d82019050919050565b60006133ba60248361430b565b91507f4552433732313a207472616e7366657220746f20746865207a65726f2061646460008301527f72657373000000000000000000000000000000000000000000000000000000006020830152604082019050919050565b600061342060198361430b565b91507f4552433732313a20617070726f766520746f2063616c6c6572000000000000006000830152602082019050919050565b6000613460602c8361430b565b91507f4552433732313a206f70657261746f7220717565727920666f72206e6f6e657860008301527f697374656e7420746f6b656e00000000000000000000000000000000000000006020830152604082019050919050565b60006134c660388361430b565b91507f4552433732313a20617070726f76652063616c6c6572206973206e6f74206f7760008301527f6e6572206e6f7220617070726f76656420666f7220616c6c00000000000000006020830152604082019050919050565b600061352c602a8361430b565b91507f4552433732313a2062616c616e636520717565727920666f7220746865207a6560008301527f726f2061646472657373000000000000000000000000000000000000000000006020830152604082019050919050565b600061359260298361430b565b91507f4552433732313a206f776e657220717565727920666f72206e6f6e657869737460008301527f656e7420746f6b656e00000000000000000000000000000000000000000000006020830152604082019050919050565b60006135f860628361431c565b91507f222c20226465736372697074696f6e223a20225468697320697320616e204e4660008301527f542074686174206c6574732070656f706c6520706c617920696e20746865206760208301527f616d65204d657461766572736520536c6179657221222c2022696d616765223a60408301527f20220000000000000000000000000000000000000000000000000000000000006060830152606282019050919050565b60006136aa602d8361430b565b91507f4572726f723a20636861726163746572206d757374206861766520485020746f60008301527f2061747461636b20626f73732e000000000000000000000000000000000000006020830152604082019050919050565b600061371060048361431c565b91507f7d205d7d000000000000000000000000000000000000000000000000000000006000830152600482019050919050565b600061375060208361430b565b91507f4552433732313a206d696e7420746f20746865207a65726f20616464726573736000830152602082019050919050565b6000613790602c8361430b565b91507f4552433732313a20617070726f76656420717565727920666f72206e6f6e657860008301527f697374656e7420746f6b656e00000000000000000000000000000000000000006020830152604082019050919050565b60006137f660298361430b565b91507f4552433732313a207472616e73666572206f6620746f6b656e2074686174206960008301527f73206e6f74206f776e00000000000000000000000000000000000000000000006020830152604082019050919050565b600061385c600a8361431c565b91507f7b226e616d65223a2022000000000000000000000000000000000000000000006000830152600a82019050919050565b600061389c60218361430b565b91507f4552433732313a20617070726f76616c20746f2063757272656e74206f776e6560008301527f72000000000000000000000000000000000000000000000000000000000000006020830152604082019050919050565b6000613902601d8361431c565b91507f646174613a6170706c69636174696f6e2f6a736f6e3b6261736536342c0000006000830152601d82019050919050565b600061394260318361430b565b91507f4552433732313a207472616e736665722063616c6c6572206973206e6f74206f60008301527f776e6572206e6f7220617070726f7665640000000000000000000000000000006020830152604082019050919050565b60006139a8603d8361431c565b91507f222c202261747472696275746573223a205b207b202274726169745f7479706560008301527f223a20224865616c746820506f696e7473222c202276616c7565223a200000006020830152603d82019050919050565b6000613a0e602d8361431c565b91507f7d2c207b202274726169745f74797065223a202241747461636b2044616d616760008301527f65222c202276616c7565223a20000000000000000000000000000000000000006020830152602d82019050919050565b600060a0830160008301518482036000860152613a848282613158565b91505060208301518482036020860152613a9e8282613158565b9150506040830151613ab36040860182613c04565b506060830151613ac66060860182613c04565b506080830151613ad96080860182613c04565b508091505092915050565b600060c083016000830151613afc6000860182613c04565b5060208301518482036020860152613b148282613158565b91505060408301518482036040860152613b2e8282613158565b9150506060830151613b436060860182613c04565b506080830151613b566080860182613c04565b5060a0830151613b6960a0860182613c04565b508091505092915050565b600060c083016000830151613b8c6000860182613c04565b5060208301518482036020860152613ba48282613158565b91505060408301518482036040860152613bbe8282613158565b9150506060830151613bd36060860182613c04565b506080830151613be66080860182613c04565b5060a0830151613bf960a0860182613c04565b508091505092915050565b613c0d816144a6565b82525050565b613c1c816144a6565b82525050565b6000613c2d8261384f565b9150613c3982896131ca565b9150613c44826131fb565b9150613c5082886131ca565b9150613c5b826135eb565b9150613c6782876131ca565b9150613c728261399b565b9150613c7e82866131ca565b9150613c8982613347565b9150613c9582856131ca565b9150613ca082613a01565b9150613cac82846131ca565b9150613cb782613703565b9150819050979650505050505050565b6000613cd2826138f5565b9150613cde82846131ca565b915081905092915050565b6000602082019050613cfe600083018461308c565b92915050565b6000608082019050613d19600083018761308c565b613d26602083018661308c565b613d336040830185613c13565b8181036060830152613d45818461311f565b905095945050505050565b6000606082019050613d65600083018661308c565b613d726020830185613c13565b613d7f6040830184613c13565b949350505050565b60006020820190508181036000830152613da1818461309b565b905092915050565b6000602082019050613dbe6000830184613110565b92915050565b60006020820190508181036000830152613dde8184613191565b905092915050565b60006080820190508181036000830152613e008187613191565b90508181036020830152613e148186613191565b9050613e236040830185613c13565b8181036060830152613e358184613191565b905095945050505050565b60006080820190508181036000830152613e5a8187613191565b90508181036020830152613e6e8186613191565b9050613e7d6040830185613c13565b613e8a6060830184613c13565b95945050505050565b600060a0820190508181036000830152613ead8188613191565b90508181036020830152613ec18187613191565b9050613ed06040830186613c13565b613edd6060830185613c13565b613eea6080830184613c13565b9695505050505050565b60006040820190508181036000830152613f0e8185613191565b9050613f1d6020830184613c13565b9392505050565b60006060820190508181036000830152613f3e8186613191565b9050613f4d6020830185613c13565b613f5a6040830184613c13565b949350505050565b60006020820190508181036000830152613f7b8161323b565b9050919050565b60006020820190508181036000830152613f9b816132a1565b9050919050565b60006020820190508181036000830152613fbb81613307565b9050919050565b60006020820190508181036000830152613fdb816133ad565b9050919050565b60006020820190508181036000830152613ffb81613413565b9050919050565b6000602082019050818103600083015261401b81613453565b9050919050565b6000602082019050818103600083015261403b816134b9565b9050919050565b6000602082019050818103600083015261405b8161351f565b9050919050565b6000602082019050818103600083015261407b81613585565b9050919050565b6000602082019050818103600083015261409b8161369d565b9050919050565b600060208201905081810360008301526140bb81613743565b9050919050565b600060208201905081810360008301526140db81613783565b9050919050565b600060208201905081810360008301526140fb816137e9565b9050919050565b6000602082019050818103600083015261411b8161388f565b9050919050565b6000602082019050818103600083015261413b81613935565b9050919050565b6000602082019050818103600083015261415c8184613a67565b905092915050565b6000602082019050818103600083015261417e8184613b74565b905092915050565b600060208201905061419b6000830184613c13565b92915050565b600060c0820190506141b66000830189613c13565b81810360208301526141c88188613191565b905081810360408301526141dc8187613191565b90506141eb6060830186613c13565b6141f86080830185613c13565b61420560a0830184613c13565b979650505050505050565b60006040820190506142256000830185613c13565b6142326020830184613c13565b9392505050565b6000604051905081810181811067ffffffffffffffff821117156142605761425f61462b565b5b8060405250919050565b600067ffffffffffffffff8211156142855761428461462b565b5b601f19601f8301169050602081019050919050565b6000819050602082019050919050565b600081519050919050565b600081519050919050565b600081519050919050565b6000602082019050919050565b600082825260208201905092915050565b600082825260208201905092915050565b600082825260208201905092915050565b600082825260208201905092915050565b600081905092915050565b6000614332826144a6565b915061433d836144a6565b9250827fffffffffffffffffffffffffffffffffffffffffffffffffffffffffffffffff038211156143725761437161459e565b5b828201905092915050565b6000614388826144a6565b9150614393836144a6565b9250826143a3576143a26145cd565b5b828204905092915050565b60006143b9826144a6565b91506143c4836144a6565b9250817fffffffffffffffffffffffffffffffffffffffffffffffffffffffffffffffff04831182151516156143fd576143fc61459e565b5b828202905092915050565b6000614413826144a6565b915061441e836144a6565b9250828210156144315761443061459e565b5b828203905092915050565b600061444782614486565b9050919050565b60008115159050919050565b60007fffffffff0000000000000000000000000000000000000000000000000000000082169050919050565b600073ffffffffffffffffffffffffffffffffffffffff82169050919050565b6000819050919050565b82818337600083830152505050565b60005b838110156144dd5780820151818401526020810190506144c2565b838111156144ec576000848401525b50505050565b6000600282049050600182168061450a57607f821691505b6020821081141561451e5761451d6145fc565b5b50919050565b600061452f826144a6565b91507fffffffffffffffffffffffffffffffffffffffffffffffffffffffffffffffff8214156145625761456161459e565b5b600182019050919050565b6000614578826144a6565b9150614583836144a6565b925082614593576145926145cd565b5b828206905092915050565b7f4e487b7100000000000000000000000000000000000000000000000000000000600052601160045260246000fd5b7f4e487b7100000000000000000000000000000000000000000000000000000000600052601260045260246000fd5b7f4e487b7100000000000000000000000000000000000000000000000000000000600052602260045260246000fd5b7f4e487b7100000000000000000000000000000000000000000000000000000000600052604160045260246000fd5b6000601f19601f8301169050919050565b6146748161443c565b811461467f57600080fd5b50565b61468b8161444e565b811461469657600080fd5b50565b6146a28161445a565b81146146ad57600080fd5b50565b6146b9816144a6565b81146146c457600080fd5b5056fe506c617965722061747461636b656420626f73732e204e657720626f73732068703a2025734142434445464748494a4b4c4d4e4f505152535455565758595a6162636465666768696a6b6c6d6e6f707172737475767778797a303132333435363738392b2f426f73732061747461636b656420706c617965722e204e657720706c617965722068703a2025730a4d696e746564204e465420772f20746f6b656e496420257320616e6420636861726163746572496e6465782025730a506c6179657220772f206368617261637465722025732061626f757420746f2061747461636b2e2048617320257320485020616e64202573204144a26469706673582212201c51ef52df793405c456164df29ce47a351ef3748e4dc63f9b01607dd99a628364736f6c63430008000033446f6e6520696e697469616c697a696e6720257320772f2048502025732c20696d67202573446f6e6520696e697469616c697a696e6720626f737320257320772f2048502025732c20696d67202573",
  "linkReferences": {},
  "deployedLinkReferences": {}
}