{
  "_format": "hh-sol-artifact-1",
  "contractName": "MyEpicGame",
  "sourceName": "contracts/MyEpicGame.sol",
  "abi": [
    {
      "inputs": [
        {
          "internalType": "string[]",
          "name": "characterNames",
          "type": "string[]"
        },
        {
          "internalType": "string[]",
          "name": "characterImageURIs",
          "type": "string[]"
        },
        {
          "internalType": "uint256[]",
          "name": "characterHp",
          "type": "uint256[]"
        },
        {
          "internalType": "uint256[]",
          "name": "characterAttackDmg",
          "type": "uint256[]"
        },
        {
          "internalType": "string",
          "name": "bossName",
          "type": "string"
        },
        {
          "internalType": "string",
          "name": "bossImageURI",
          "type": "string"
        },
        {
          "internalType": "uint256",
          "name": "bossHp",
          "type": "uint256"
        },
        {
          "internalType": "uint256",
          "name": "bossAttackDamage",
          "type": "uint256"
        }
      ],
      "stateMutability": "nonpayable",
      "type": "constructor"
    },
    {
      "anonymous": false,
      "inputs": [
        {
          "indexed": true,
          "internalType": "address",
          "name": "owner",
          "type": "address"
        },
        {
          "indexed": true,
          "internalType": "address",
          "name": "approved",
          "type": "address"
        },
        {
          "indexed": true,
          "internalType": "uint256",
          "name": "tokenId",
          "type": "uint256"
        }
      ],
      "name": "Approval",
      "type": "event"
    },
    {
      "anonymous": false,
      "inputs": [
        {
          "indexed": true,
          "internalType": "address",
          "name": "owner",
          "type": "address"
        },
        {
          "indexed": true,
          "internalType": "address",
          "name": "operator",
          "type": "address"
        },
        {
          "indexed": false,
          "internalType": "bool",
          "name": "approved",
          "type": "bool"
        }
      ],
      "name": "ApprovalForAll",
      "type": "event"
    },
    {
      "anonymous": false,
      "inputs": [
        {
          "indexed": false,
          "internalType": "uint256",
          "name": "newBossHp",
          "type": "uint256"
        },
        {
          "indexed": false,
          "internalType": "uint256",
          "name": "newPlayerHp",
          "type": "uint256"
        }
      ],
      "name": "AttackComplete",
      "type": "event"
    },
    {
      "anonymous": false,
      "inputs": [
        {
          "indexed": false,
          "internalType": "address",
          "name": "sender",
          "type": "address"
        },
        {
          "indexed": false,
          "internalType": "uint256",
          "name": "tokenId",
          "type": "uint256"
        },
        {
          "indexed": false,
          "internalType": "uint256",
          "name": "characterIndex",
          "type": "uint256"
        }
      ],
      "name": "CharacterNFTMinted",
      "type": "event"
    },
    {
      "anonymous": false,
      "inputs": [
        {
          "indexed": true,
          "internalType": "address",
          "name": "from",
          "type": "address"
        },
        {
          "indexed": true,
          "internalType": "address",
          "name": "to",
          "type": "address"
        },
        {
          "indexed": true,
          "internalType": "uint256",
          "name": "tokenId",
          "type": "uint256"
        }
      ],
      "name": "Transfer",
      "type": "event"
    },
    {
      "inputs": [
        {
          "internalType": "address",
          "name": "to",
          "type": "address"
        },
        {
          "internalType": "uint256",
          "name": "tokenId",
          "type": "uint256"
        }
      ],
      "name": "approve",
      "outputs": [],
      "stateMutability": "nonpayable",
      "type": "function"
    },
    {
      "inputs": [],
      "name": "attackBoss",
      "outputs": [],
      "stateMutability": "nonpayable",
      "type": "function"
    },
    {
      "inputs": [
        {
          "internalType": "address",
          "name": "owner",
          "type": "address"
        }
      ],
      "name": "balanceOf",
      "outputs": [
        {
          "internalType": "uint256",
          "name": "",
          "type": "uint256"
        }
      ],
      "stateMutability": "view",
      "type": "function"
    },
    {
      "inputs": [],
      "name": "bigBoss",
      "outputs": [
        {
          "internalType": "string",
          "name": "name",
          "type": "string"
        },
        {
          "internalType": "string",
          "name": "imageURI",
          "type": "string"
        },
        {
          "internalType": "uint256",
          "name": "hp",
          "type": "uint256"
        },
        {
          "internalType": "uint256",
          "name": "maxHp",
          "type": "uint256"
        },
        {
          "internalType": "uint256",
          "name": "attackDamage",
          "type": "uint256"
        }
      ],
      "stateMutability": "view",
      "type": "function"
    },
    {
      "inputs": [],
      "name": "checkIfUserHasNFT",
      "outputs": [
        {
          "components": [
            {
              "internalType": "uint256",
              "name": "characterIndex",
              "type": "uint256"
            },
            {
              "internalType": "string",
              "name": "name",
              "type": "string"
            },
            {
              "internalType": "string",
              "name": "imageURI",
              "type": "string"
            },
            {
              "internalType": "uint256",
              "name": "hp",
              "type": "uint256"
            },
            {
              "internalType": "uint256",
              "name": "attackDamage",
              "type": "uint256"
            }
          ],
          "internalType": "struct MyEpicGame.CharacterAttributes",
          "name": "",
          "type": "tuple"
        }
      ],
      "stateMutability": "view",
      "type": "function"
    },
    {
      "inputs": [],
      "name": "getAllDefaultCharacters",
      "outputs": [
        {
          "components": [
            {
              "internalType": "uint256",
              "name": "characterIndex",
              "type": "uint256"
            },
            {
              "internalType": "string",
              "name": "name",
              "type": "string"
            },
            {
              "internalType": "string",
              "name": "imageURI",
              "type": "string"
            },
            {
              "internalType": "uint256",
              "name": "hp",
              "type": "uint256"
            },
            {
              "internalType": "uint256",
              "name": "attackDamage",
              "type": "uint256"
            }
          ],
          "internalType": "struct MyEpicGame.CharacterAttributes[]",
          "name": "",
          "type": "tuple[]"
        }
      ],
      "stateMutability": "view",
      "type": "function"
    },
    {
      "inputs": [
        {
          "internalType": "uint256",
          "name": "tokenId",
          "type": "uint256"
        }
      ],
      "name": "getApproved",
      "outputs": [
        {
          "internalType": "address",
          "name": "",
          "type": "address"
        }
      ],
      "stateMutability": "view",
      "type": "function"
    },
    {
      "inputs": [],
      "name": "getBoss",
      "outputs": [
        {
          "components": [
            {
              "internalType": "string",
              "name": "name",
              "type": "string"
            },
            {
              "internalType": "string",
              "name": "imageURI",
              "type": "string"
            },
            {
              "internalType": "uint256",
              "name": "hp",
              "type": "uint256"
            },
            {
              "internalType": "uint256",
              "name": "maxHp",
              "type": "uint256"
            },
            {
              "internalType": "uint256",
              "name": "attackDamage",
              "type": "uint256"
            }
          ],
          "internalType": "struct MyEpicGame.BigBoss",
          "name": "",
          "type": "tuple"
        }
      ],
      "stateMutability": "view",
      "type": "function"
    },
    {
      "inputs": [
        {
          "internalType": "address",
          "name": "owner",
          "type": "address"
        },
        {
          "internalType": "address",
          "name": "operator",
          "type": "address"
        }
      ],
      "name": "isApprovedForAll",
      "outputs": [
        {
          "internalType": "bool",
          "name": "",
          "type": "bool"
        }
      ],
      "stateMutability": "view",
      "type": "function"
    },
    {
      "inputs": [
        {
          "internalType": "uint256",
          "name": "_characterIndex",
          "type": "uint256"
        }
      ],
      "name": "mintCharacterNFT",
      "outputs": [],
      "stateMutability": "nonpayable",
      "type": "function"
    },
    {
      "inputs": [],
      "name": "name",
      "outputs": [
        {
          "internalType": "string",
          "name": "",
          "type": "string"
        }
      ],
      "stateMutability": "view",
      "type": "function"
    },
    {
      "inputs": [
        {
          "internalType": "uint256",
          "name": "",
          "type": "uint256"
        }
      ],
      "name": "nftHolderAttributes",
      "outputs": [
        {
          "internalType": "uint256",
          "name": "characterIndex",
          "type": "uint256"
        },
        {
          "internalType": "string",
          "name": "name",
          "type": "string"
        },
        {
          "internalType": "string",
          "name": "imageURI",
          "type": "string"
        },
        {
          "internalType": "uint256",
          "name": "hp",
          "type": "uint256"
        },
        {
          "internalType": "uint256",
          "name": "attackDamage",
          "type": "uint256"
        }
      ],
      "stateMutability": "view",
      "type": "function"
    },
    {
      "inputs": [
        {
          "internalType": "address",
          "name": "",
          "type": "address"
        }
      ],
      "name": "nftHolders",
      "outputs": [
        {
          "internalType": "uint256",
          "name": "",
          "type": "uint256"
        }
      ],
      "stateMutability": "view",
      "type": "function"
    },
    {
      "inputs": [
        {
          "internalType": "uint256",
          "name": "tokenId",
          "type": "uint256"
        }
      ],
      "name": "ownerOf",
      "outputs": [
        {
          "internalType": "address",
          "name": "",
          "type": "address"
        }
      ],
      "stateMutability": "view",
      "type": "function"
    },
    {
      "inputs": [
        {
          "internalType": "address",
          "name": "from",
          "type": "address"
        },
        {
          "internalType": "address",
          "name": "to",
          "type": "address"
        },
        {
          "internalType": "uint256",
          "name": "tokenId",
          "type": "uint256"
        }
      ],
      "name": "safeTransferFrom",
      "outputs": [],
      "stateMutability": "nonpayable",
      "type": "function"
    },
    {
      "inputs": [
        {
          "internalType": "address",
          "name": "from",
          "type": "address"
        },
        {
          "internalType": "address",
          "name": "to",
          "type": "address"
        },
        {
          "internalType": "uint256",
          "name": "tokenId",
          "type": "uint256"
        },
        {
          "internalType": "bytes",
          "name": "_data",
          "type": "bytes"
        }
      ],
      "name": "safeTransferFrom",
      "outputs": [],
      "stateMutability": "nonpayable",
      "type": "function"
    },
    {
      "inputs": [
        {
          "internalType": "address",
          "name": "operator",
          "type": "address"
        },
        {
          "internalType": "bool",
          "name": "approved",
          "type": "bool"
        }
      ],
      "name": "setApprovalForAll",
      "outputs": [],
      "stateMutability": "nonpayable",
      "type": "function"
    },
    {
      "inputs": [
        {
          "internalType": "bytes4",
          "name": "interfaceId",
          "type": "bytes4"
        }
      ],
      "name": "supportsInterface",
      "outputs": [
        {
          "internalType": "bool",
          "name": "",
          "type": "bool"
        }
      ],
      "stateMutability": "view",
      "type": "function"
    },
    {
      "inputs": [],
      "name": "symbol",
      "outputs": [
        {
          "internalType": "string",
          "name": "",
          "type": "string"
        }
      ],
      "stateMutability": "view",
      "type": "function"
    },
    {
      "inputs": [
        {
          "internalType": "uint256",
          "name": "_tokenId",
          "type": "uint256"
        }
      ],
      "name": "tokenURI",
      "outputs": [
        {
          "internalType": "string",
          "name": "",
          "type": "string"
        }
      ],
      "stateMutability": "view",
      "type": "function"
    },
    {
      "inputs": [
        {
          "internalType": "address",
          "name": "from",
          "type": "address"
        },
        {
          "internalType": "address",
          "name": "to",
          "type": "address"
        },
        {
          "internalType": "uint256",
          "name": "tokenId",
          "type": "uint256"
        }
      ],
      "name": "transferFrom",
      "outputs": [],
      "stateMutability": "nonpayable",
      "type": "function"
    }
  ],
  "bytecode": "0x60806040523480156200001157600080fd5b506040516200557e3803806200557e8339818101604052810190620000379190620009ff565b6040518060400160405280600681526020017f4865726f657300000000000000000000000000000000000000000000000000008152506040518060400160405280600481526020017f4845524f000000000000000000000000000000000000000000000000000000008152508160009080519060200190620000bb92919062000792565b508060019080519060200190620000d492919062000792565b5050506040518060a0016040528085815260200184815260200183815260200183815260200182815250600660008201518160000190805190602001906200011e92919062000792565b5060208201518160010190805190602001906200013d92919062000792565b50604082015181600201556060820151816003015560808201518160040155905050620002c06040518060600160405280602a815260200162005554602a9139600660000180546200018f9062000d8a565b80601f0160208091040260200160405190810160405280929190818152602001828054620001bd9062000d8a565b80156200020e5780601f10620001e2576101008083540402835291602001916200020e565b820191906000526020600020905b815481529060010190602001808311620001f057829003601f168201915b5050505050600660020154600660010180546200022b9062000d8a565b80601f0160208091040260200160405190810160405280929190818152602001828054620002599062000d8a565b8015620002aa5780601f106200027e57610100808354040283529160200191620002aa565b820191906000526020600020905b8154815290600101906020018083116200028c57829003601f168201915b5050505050620006a760201b62001b411760201c565b60005b88518110156200069857600c6040518060a001604052808381526020018b84815181106200031a577f4e487b7100000000000000000000000000000000000000000000000000000000600052603260045260246000fd5b602002602001015181526020018a848151811062000361577f4e487b7100000000000000000000000000000000000000000000000000000000600052603260045260246000fd5b60200260200101518152602001898481518110620003a8577f4e487b7100000000000000000000000000000000000000000000000000000000600052603260045260246000fd5b60200260200101518152602001888481518110620003ef577f4e487b7100000000000000000000000000000000000000000000000000000000600052603260045260246000fd5b602002602001015181525090806001815401808255809150506001900390600052602060002090600502016000909190919091506000820151816000015560208201518160010190805190602001906200044b92919062000792565b5060408201518160020190805190602001906200046a92919062000792565b50606082015181600301556080820151816004015550506000600c8281548110620004be577f4e487b7100000000000000000000000000000000000000000000000000000000600052603260045260246000fd5b90600052602060002090600502016040518060a001604052908160008201548152602001600182018054620004f39062000d8a565b80601f0160208091040260200160405190810160405280929190818152602001828054620005219062000d8a565b8015620005725780601f10620005465761010080835404028352916020019162000572565b820191906000526020600020905b8154815290600101906020018083116200055457829003601f168201915b505050505081526020016002820180546200058d9062000d8a565b80601f0160208091040260200160405190810160405280929190818152602001828054620005bb9062000d8a565b80156200060c5780601f10620005e0576101008083540402835291602001916200060c565b820191906000526020600020905b815481529060010190602001808311620005ee57829003601f168201915b50505050508152602001600382015481526020016004820154815250509050620006696040518060600160405280602581526020016200552f60259139826020015183606001518460400151620006a760201b62001b411760201c565b62000680600b6200075360201b62001be31760201c565b5060018162000690919062000ced565b9050620002c3565b50505050505050505062000e78565b6200074d84848484604051602401620006c4949392919062000baa565b6040516020818303038152906040527f8d142cdd000000000000000000000000000000000000000000000000000000007bffffffffffffffffffffffffffffffffffffffffffffffffffffffff19166020820180517bffffffffffffffffffffffffffffffffffffffffffffffffffffffff83818316178352505050506200076960201b60201c565b50505050565b6001816000016000828254019250508190555050565b60008151905060006a636f6e736f6c652e6c6f679050602083016000808483855afa5050505050565b828054620007a09062000d8a565b90600052602060002090601f016020900481019282620007c4576000855562000810565b82601f10620007df57805160ff191683800117855562000810565b8280016001018555821562000810579182015b828111156200080f578251825591602001919060010190620007f2565b5b5090506200081f919062000823565b5090565b5b808211156200083e57600081600090555060010162000824565b5090565b600062000859620008538462000c40565b62000c0c565b9050808382526020820190508260005b858110156200089d5781518501620008828882620009bb565b84526020840193506020830192505060018101905062000869565b5050509392505050565b6000620008be620008b88462000c6f565b62000c0c565b90508083825260208201905082856020860282011115620008de57600080fd5b60005b85811015620009125781620008f78882620009e8565b845260208401935060208301925050600181019050620008e1565b5050509392505050565b6000620009336200092d8462000c9e565b62000c0c565b9050828152602081018484840111156200094c57600080fd5b6200095984828562000d54565b509392505050565b600082601f8301126200097357600080fd5b81516200098584826020860162000842565b91505092915050565b600082601f830112620009a057600080fd5b8151620009b2848260208601620008a7565b91505092915050565b600082601f830112620009cd57600080fd5b8151620009df8482602086016200091c565b91505092915050565b600081519050620009f98162000e5e565b92915050565b600080600080600080600080610100898b03121562000a1d57600080fd5b600089015167ffffffffffffffff81111562000a3857600080fd5b62000a468b828c0162000961565b985050602089015167ffffffffffffffff81111562000a6457600080fd5b62000a728b828c0162000961565b975050604089015167ffffffffffffffff81111562000a9057600080fd5b62000a9e8b828c016200098e565b965050606089015167ffffffffffffffff81111562000abc57600080fd5b62000aca8b828c016200098e565b955050608089015167ffffffffffffffff81111562000ae857600080fd5b62000af68b828c01620009bb565b94505060a089015167ffffffffffffffff81111562000b1457600080fd5b62000b228b828c01620009bb565b93505060c062000b358b828c01620009e8565b92505060e062000b488b828c01620009e8565b9150509295985092959890939650565b600062000b658262000cd1565b62000b71818562000cdc565b935062000b8381856020860162000d54565b62000b8e8162000e4d565b840191505092915050565b62000ba48162000d4a565b82525050565b6000608082019050818103600083015262000bc6818762000b58565b9050818103602083015262000bdc818662000b58565b905062000bed604083018562000b99565b818103606083015262000c01818462000b58565b905095945050505050565b6000604051905081810181811067ffffffffffffffff8211171562000c365762000c3562000e1e565b5b8060405250919050565b600067ffffffffffffffff82111562000c5e5762000c5d62000e1e565b5b602082029050602081019050919050565b600067ffffffffffffffff82111562000c8d5762000c8c62000e1e565b5b602082029050602081019050919050565b600067ffffffffffffffff82111562000cbc5762000cbb62000e1e565b5b601f19601f8301169050602081019050919050565b600081519050919050565b600082825260208201905092915050565b600062000cfa8262000d4a565b915062000d078362000d4a565b9250827fffffffffffffffffffffffffffffffffffffffffffffffffffffffffffffffff0382111562000d3f5762000d3e62000dc0565b5b828201905092915050565b6000819050919050565b60005b8381101562000d7457808201518184015260208101905062000d57565b8381111562000d84576000848401525b50505050565b6000600282049050600182168062000da357607f821691505b6020821081141562000dba5762000db962000def565b5b50919050565b7f4e487b7100000000000000000000000000000000000000000000000000000000600052601160045260246000fd5b7f4e487b7100000000000000000000000000000000000000000000000000000000600052602260045260246000fd5b7f4e487b7100000000000000000000000000000000000000000000000000000000600052604160045260246000fd5b6000601f19601f8301169050919050565b62000e698162000d4a565b811462000e7557600080fd5b50565b6146a78062000e886000396000f3fe608060405234801561001057600080fd5b50600436106101375760003560e01c806398da4c95116100b8578063c76d9e7d1161007c578063c76d9e7d14610368578063c87b56dd14610386578063c8cf27f4146103b6578063d4f24c5b146103d4578063e985e9c5146103de578063f8b81ef71461040e57610137565b806398da4c95146102bc578063a22cb465146102f0578063a9c326791461030c578063b88d4fde1461032e578063b953084e1461034a57610137565b806342842e0e116100ff57806342842e0e146101f25780636352211e1461020e57806370a082311461023e5780637df124a11461026e57806395d89b411461029e57610137565b806301ffc9a71461013c57806306fdde031461016c578063081812fc1461018a578063095ea7b3146101ba57806323b872dd146101d6575b600080fd5b61015660048036038101906101519190612f62565b61042a565b6040516101639190613c6a565b60405180910390f35b61017461050c565b6040516101819190613c85565b60405180910390f35b6101a4600480360381019061019f9190612fb4565b61059e565b6040516101b19190613baa565b60405180910390f35b6101d460048036038101906101cf9190612f26565b610623565b005b6101f060048036038101906101eb9190612e20565b61073b565b005b61020c60048036038101906102079190612e20565b61079b565b005b61022860048036038101906102239190612fb4565b6107bb565b6040516102359190613baa565b60405180910390f35b61025860048036038101906102539190612dbb565b61086d565b6040516102659190614047565b60405180910390f35b61028860048036038101906102839190612dbb565b610925565b6040516102959190614047565b60405180910390f35b6102a661093d565b6040516102b39190613c85565b60405180910390f35b6102d660048036038101906102d19190612fb4565b6109cf565b6040516102e7959493929190614062565b60405180910390f35b61030a60048036038101906103059190612eea565b610b15565b005b610314610b2b565b604051610325959493929190613d54565b60405180910390f35b61034860048036038101906103439190612e6f565b610c5f565b005b610352610cc1565b60405161035f9190613c48565b60405180910390f35b610370610e62565b60405161037d9190614003565b60405180910390f35b6103a0600480360381019061039b9190612fb4565b610fbe565b6040516103ad9190613c85565b60405180910390f35b6103be6111bb565b6040516103cb9190614025565b60405180910390f35b6103dc611389565b005b6103f860048036038101906103f39190612de4565b611714565b6040516104059190613c6a565b60405180910390f35b61042860048036038101906104239190612fb4565b6117a8565b005b60007f80ac58cd000000000000000000000000000000000000000000000000000000007bffffffffffffffffffffffffffffffffffffffffffffffffffffffff1916827bffffffffffffffffffffffffffffffffffffffffffffffffffffffff191614806104f557507f5b5e139f000000000000000000000000000000000000000000000000000000007bffffffffffffffffffffffffffffffffffffffffffffffffffffffff1916827bffffffffffffffffffffffffffffffffffffffffffffffffffffffff1916145b80610505575061050482611bf9565b5b9050919050565b60606000805461051b906143a5565b80601f0160208091040260200160405190810160405280929190818152602001828054610547906143a5565b80156105945780601f1061056957610100808354040283529160200191610594565b820191906000526020600020905b81548152906001019060200180831161057757829003601f168201915b5050505050905090565b60006105a982611c63565b6105e8576040517f08c379a00000000000000000000000000000000000000000000000000000000081526004016105df90613f83565b60405180910390fd5b6004600083815260200190815260200160002060009054906101000a900473ffffffffffffffffffffffffffffffffffffffff169050919050565b600061062e826107bb565b90508073ffffffffffffffffffffffffffffffffffffffff168373ffffffffffffffffffffffffffffffffffffffff16141561069f576040517f08c379a000000000000000000000000000000000000000000000000000000000815260040161069690613fc3565b60405180910390fd5b8073ffffffffffffffffffffffffffffffffffffffff166106be611ccf565b73ffffffffffffffffffffffffffffffffffffffff1614806106ed57506106ec816106e7611ccf565b611714565b5b61072c576040517f08c379a000000000000000000000000000000000000000000000000000000000815260040161072390613ee3565b60405180910390fd5b6107368383611cd7565b505050565b61074c610746611ccf565b82611d90565b61078b576040517f08c379a000000000000000000000000000000000000000000000000000000000815260040161078290613fe3565b60405180910390fd5b610796838383611e6e565b505050565b6107b683838360405180602001604052806000815250610c5f565b505050565b6000806002600084815260200190815260200160002060009054906101000a900473ffffffffffffffffffffffffffffffffffffffff169050600073ffffffffffffffffffffffffffffffffffffffff168173ffffffffffffffffffffffffffffffffffffffff161415610864576040517f08c379a000000000000000000000000000000000000000000000000000000000815260040161085b90613f23565b60405180910390fd5b80915050919050565b60008073ffffffffffffffffffffffffffffffffffffffff168273ffffffffffffffffffffffffffffffffffffffff1614156108de576040517f08c379a00000000000000000000000000000000000000000000000000000000081526004016108d590613f03565b60405180910390fd5b600360008373ffffffffffffffffffffffffffffffffffffffff1673ffffffffffffffffffffffffffffffffffffffff168152602001908152602001600020549050919050565b600e6020528060005260406000206000915090505481565b60606001805461094c906143a5565b80601f0160208091040260200160405190810160405280929190818152602001828054610978906143a5565b80156109c55780601f1061099a576101008083540402835291602001916109c5565b820191906000526020600020905b8154815290600101906020018083116109a857829003601f168201915b5050505050905090565b600d6020528060005260406000206000915090508060000154908060010180546109f8906143a5565b80601f0160208091040260200160405190810160405280929190818152602001828054610a24906143a5565b8015610a715780601f10610a4657610100808354040283529160200191610a71565b820191906000526020600020905b815481529060010190602001808311610a5457829003601f168201915b505050505090806002018054610a86906143a5565b80601f0160208091040260200160405190810160405280929190818152602001828054610ab2906143a5565b8015610aff5780601f10610ad457610100808354040283529160200191610aff565b820191906000526020600020905b815481529060010190602001808311610ae257829003601f168201915b5050505050908060030154908060040154905085565b610b27610b20611ccf565b83836120ca565b5050565b6006806000018054610b3c906143a5565b80601f0160208091040260200160405190810160405280929190818152602001828054610b68906143a5565b8015610bb55780601f10610b8a57610100808354040283529160200191610bb5565b820191906000526020600020905b815481529060010190602001808311610b9857829003601f168201915b505050505090806001018054610bca906143a5565b80601f0160208091040260200160405190810160405280929190818152602001828054610bf6906143a5565b8015610c435780601f10610c1857610100808354040283529160200191610c43565b820191906000526020600020905b815481529060010190602001808311610c2657829003601f168201915b5050505050908060020154908060030154908060040154905085565b610c70610c6a611ccf565b83611d90565b610caf576040517f08c379a0000000000000000000000000000000000000000000000000000000008152600401610ca690613fe3565b60405180910390fd5b610cbb84848484612237565b50505050565b6060600c805480602002602001604051908101604052809291908181526020016000905b82821015610e5957838290600052602060002090600502016040518060a001604052908160008201548152602001600182018054610d22906143a5565b80601f0160208091040260200160405190810160405280929190818152602001828054610d4e906143a5565b8015610d9b5780601f10610d7057610100808354040283529160200191610d9b565b820191906000526020600020905b815481529060010190602001808311610d7e57829003601f168201915b50505050508152602001600282018054610db4906143a5565b80601f0160208091040260200160405190810160405280929190818152602001828054610de0906143a5565b8015610e2d5780601f10610e0257610100808354040283529160200191610e2d565b820191906000526020600020905b815481529060010190602001808311610e1057829003601f168201915b505050505081526020016003820154815260200160048201548152505081526020019060010190610ce5565b50505050905090565b610e6a612be9565b60066040518060a0016040529081600082018054610e87906143a5565b80601f0160208091040260200160405190810160405280929190818152602001828054610eb3906143a5565b8015610f005780601f10610ed557610100808354040283529160200191610f00565b820191906000526020600020905b815481529060010190602001808311610ee357829003601f168201915b50505050508152602001600182018054610f19906143a5565b80601f0160208091040260200160405190810160405280929190818152602001828054610f45906143a5565b8015610f925780601f10610f6757610100808354040283529160200191610f92565b820191906000526020600020905b815481529060010190602001808311610f7557829003601f168201915b505050505081526020016002820154815260200160038201548152602001600482015481525050905090565b60606000600d60008481526020019081526020016000206040518060a001604052908160008201548152602001600182018054610ffa906143a5565b80601f0160208091040260200160405190810160405280929190818152602001828054611026906143a5565b80156110735780601f1061104857610100808354040283529160200191611073565b820191906000526020600020905b81548152906001019060200180831161105657829003601f168201915b5050505050815260200160028201805461108c906143a5565b80601f01602080910402602001604051908101604052809291908181526020018280546110b8906143a5565b80156111055780601f106110da57610100808354040283529160200191611105565b820191906000526020600020905b8154815290600101906020018083116110e857829003601f168201915b5050505050815260200160038201548152602001600482015481525050905060006111338260600151612293565b905060006111448360800151612293565b90506000611188846020015161115988612293565b86604001518686604051602001611174959493929190613afb565b604051602081830303815290604052612440565b905060008160405160200161119d9190613b88565b60405160208183030381529060405290508095505050505050919050565b6111c3612c18565b6000600e60003373ffffffffffffffffffffffffffffffffffffffff1673ffffffffffffffffffffffffffffffffffffffff168152602001908152602001600020549050600081111561137857600d60008281526020019081526020016000206040518060a001604052908160008201548152602001600182018054611248906143a5565b80601f0160208091040260200160405190810160405280929190818152602001828054611274906143a5565b80156112c15780601f10611296576101008083540402835291602001916112c1565b820191906000526020600020905b8154815290600101906020018083116112a457829003601f168201915b505050505081526020016002820180546112da906143a5565b80601f0160208091040260200160405190810160405280929190818152602001828054611306906143a5565b80156113535780601f1061132857610100808354040283529160200191611353565b820191906000526020600020905b81548152906001019060200180831161133657829003601f168201915b5050505050815260200160038201548152602001600482015481525050915050611386565b611380612c18565b80925050505b90565b6000600e60003373ffffffffffffffffffffffffffffffffffffffff1673ffffffffffffffffffffffffffffffffffffffff1681526020019081526020016000205490506000600d6000838152602001908152602001600020905061149c6040518060600160405280603c8152602001614636603c913982600101805461140f906143a5565b80601f016020809104026020016040519081016040528092919081815260200182805461143b906143a5565b80156114885780601f1061145d57610100808354040283529160200191611488565b820191906000526020600020905b81548152906001019060200180831161146b57829003601f168201915b5050505050836003015484600401546125df565b6115746040518060400160405280601b81526020017f426f73732025732068617320257320485020616e642025732041440000000000815250600660000180546114e5906143a5565b80601f0160208091040260200160405190810160405280929190818152602001828054611511906143a5565b801561155e5780601f106115335761010080835404028352916020019161155e565b820191906000526020600020905b81548152906001019060200180831161154157829003601f168201915b50505050506006600201546006600401546125df565b60008160030154116115bb576040517f08c379a00000000000000000000000000000000000000000000000000000000081526004016115b290613f43565b60405180910390fd5b600060066002015411611603576040517f08c379a00000000000000000000000000000000000000000000000000000000081526004016115fa90613e43565b60405180910390fd5b80600401546006600201541015611624576000600660020181905550611643565b806004015460066002015461163991906142bb565b6006600201819055505b600660040154816003015410156116635760008160030181905550611681565b600660040154816003015461167891906142bb565b81600301819055505b6116a860405180606001604052806025815260200161457b60259139600660020154612681565b6116ce6040518060600160405280602881526020016145e0602891398260030154612681565b7f838ab28464562786a6c4ab2311964b82fa60bd9b14aa7e856af1f3f18d41a41460066002015482600301546040516117089291906140c3565b60405180910390a15050565b6000600560008473ffffffffffffffffffffffffffffffffffffffff1673ffffffffffffffffffffffffffffffffffffffff16815260200190815260200160002060008373ffffffffffffffffffffffffffffffffffffffff1673ffffffffffffffffffffffffffffffffffffffff16815260200190815260200160002060009054906101000a900460ff16905092915050565b60006117b4600b61271d565b90506117c0338261272b565b6040518060a00160405280838152602001600c848154811061180b577f4e487b7100000000000000000000000000000000000000000000000000000000600052603260045260246000fd5b90600052602060002090600502016001018054611827906143a5565b80601f0160208091040260200160405190810160405280929190818152602001828054611853906143a5565b80156118a05780601f10611875576101008083540402835291602001916118a0565b820191906000526020600020905b81548152906001019060200180831161188357829003601f168201915b50505050508152602001600c84815481106118e4577f4e487b7100000000000000000000000000000000000000000000000000000000600052603260045260246000fd5b90600052602060002090600502016002018054611900906143a5565b80601f016020809104026020016040519081016040528092919081815260200182805461192c906143a5565b80156119795780601f1061194e57610100808354040283529160200191611979565b820191906000526020600020905b81548152906001019060200180831161195c57829003601f168201915b50505050508152602001600c84815481106119bd577f4e487b7100000000000000000000000000000000000000000000000000000000600052603260045260246000fd5b9060005260206000209060050201600301548152602001600c8481548110611a0e577f4e487b7100000000000000000000000000000000000000000000000000000000600052603260045260246000fd5b906000526020600020906005020160040154815250600d6000838152602001908152602001600020600082015181600001556020820151816001019080519060200190611a5c929190612c47565b506040820151816002019080519060200190611a79929190612c47565b506060820151816003015560808201518160040155905050611ab46040518060600160405280602e8152602001614608602e91398284612749565b80600e60003373ffffffffffffffffffffffffffffffffffffffff1673ffffffffffffffffffffffffffffffffffffffff16815260200190815260200160002081905550611b02600b611be3565b7f4bc303fd457a97b4691b9af582ce71868a3d258638c8d4f8c60988a0f0bfb8cd338284604051611b3593929190613c11565b60405180910390a15050565b611bdd84848484604051602401611b5b9493929190613ca7565b6040516020818303038152906040527f8d142cdd000000000000000000000000000000000000000000000000000000007bffffffffffffffffffffffffffffffffffffffffffffffffffffffff19166020820180517bffffffffffffffffffffffffffffffffffffffffffffffffffffffff83818316178352505050506127e8565b50505050565b6001816000016000828254019250508190555050565b60007f01ffc9a7000000000000000000000000000000000000000000000000000000007bffffffffffffffffffffffffffffffffffffffffffffffffffffffff1916827bffffffffffffffffffffffffffffffffffffffffffffffffffffffff1916149050919050565b60008073ffffffffffffffffffffffffffffffffffffffff166002600084815260200190815260200160002060009054906101000a900473ffffffffffffffffffffffffffffffffffffffff1673ffffffffffffffffffffffffffffffffffffffff1614159050919050565b600033905090565b816004600083815260200190815260200160002060006101000a81548173ffffffffffffffffffffffffffffffffffffffff021916908373ffffffffffffffffffffffffffffffffffffffff160217905550808273ffffffffffffffffffffffffffffffffffffffff16611d4a836107bb565b73ffffffffffffffffffffffffffffffffffffffff167f8c5be1e5ebec7d5bd14f71427d1e84f3dd0314c0f7b2291e5b200ac8c7c3b92560405160405180910390a45050565b6000611d9b82611c63565b611dda576040517f08c379a0000000000000000000000000000000000000000000000000000000008152600401611dd190613ec3565b60405180910390fd5b6000611de5836107bb565b90508073ffffffffffffffffffffffffffffffffffffffff168473ffffffffffffffffffffffffffffffffffffffff161480611e5457508373ffffffffffffffffffffffffffffffffffffffff16611e3c8461059e565b73ffffffffffffffffffffffffffffffffffffffff16145b80611e655750611e648185611714565b5b91505092915050565b8273ffffffffffffffffffffffffffffffffffffffff16611e8e826107bb565b73ffffffffffffffffffffffffffffffffffffffff1614611ee4576040517f08c379a0000000000000000000000000000000000000000000000000000000008152600401611edb90613fa3565b60405180910390fd5b600073ffffffffffffffffffffffffffffffffffffffff168273ffffffffffffffffffffffffffffffffffffffff161415611f54576040517f08c379a0000000000000000000000000000000000000000000000000000000008152600401611f4b90613e83565b60405180910390fd5b611f5f838383612811565b611f6a600082611cd7565b6001600360008573ffffffffffffffffffffffffffffffffffffffff1673ffffffffffffffffffffffffffffffffffffffff1681526020019081526020016000206000828254611fba91906142bb565b925050819055506001600360008473ffffffffffffffffffffffffffffffffffffffff1673ffffffffffffffffffffffffffffffffffffffff168152602001908152602001600020600082825461201191906141da565b92505081905550816002600083815260200190815260200160002060006101000a81548173ffffffffffffffffffffffffffffffffffffffff021916908373ffffffffffffffffffffffffffffffffffffffff160217905550808273ffffffffffffffffffffffffffffffffffffffff168473ffffffffffffffffffffffffffffffffffffffff167fddf252ad1be2c89b69c2b068fc378daa952ba7f163c4a11628f55a4df523b3ef60405160405180910390a4505050565b8173ffffffffffffffffffffffffffffffffffffffff168373ffffffffffffffffffffffffffffffffffffffff161415612139576040517f08c379a000000000000000000000000000000000000000000000000000000000815260040161213090613ea3565b60405180910390fd5b80600560008573ffffffffffffffffffffffffffffffffffffffff1673ffffffffffffffffffffffffffffffffffffffff16815260200190815260200160002060008473ffffffffffffffffffffffffffffffffffffffff1673ffffffffffffffffffffffffffffffffffffffff16815260200190815260200160002060006101000a81548160ff0219169083151502179055508173ffffffffffffffffffffffffffffffffffffffff168373ffffffffffffffffffffffffffffffffffffffff167f17307eab39ab6107e8899845ad3d59bd9653f200f220920489ca2b5937696c318360405161222a9190613c6a565b60405180910390a3505050565b612242848484611e6e565b61224e84848484612816565b61228d576040517f08c379a000000000000000000000000000000000000000000000000000000000815260040161228490613e23565b60405180910390fd5b50505050565b606060008214156122db576040518060400160405280600181526020017f3000000000000000000000000000000000000000000000000000000000000000815250905061243b565b600082905060005b6000821461230d5780806122f6906143d7565b915050600a826123069190614230565b91506122e3565b60008167ffffffffffffffff81111561234f577f4e487b7100000000000000000000000000000000000000000000000000000000600052604160045260246000fd5b6040519080825280601f01601f1916602001820160405280156123815781602001600182028036833780820191505090505b5090505b600085146124345760018261239a91906142bb565b9150600a856123a99190614420565b60306123b591906141da565b60f81b8183815181106123f1577f4e487b7100000000000000000000000000000000000000000000000000000000600052603260045260246000fd5b60200101907effffffffffffffffffffffffffffffffffffffffffffffffffffffffffffff1916908160001a905350600a8561242d9190614230565b9450612385565b8093505050505b919050565b6060600082511415612463576040518060200160405280600081525090506125da565b60006040518060600160405280604081526020016145a0604091399050600060036002855161249291906141da565b61249c9190614230565b60046124a89190614261565b905060006020826124b991906141da565b67ffffffffffffffff8111156124f8577f4e487b7100000000000000000000000000000000000000000000000000000000600052604160045260246000fd5b6040519080825280601f01601f19166020018201604052801561252a5781602001600182028036833780820191505090505b509050818152600183018586518101602084015b81831015612599576003830192508251603f8160121c168501518253600182019150603f81600c1c168501518253600182019150603f8160061c168501518253600182019150603f811685015182536001820191505061253e565b6003895106600181146125b357600281146125c3576125ce565b613d3d60f01b60028303526125ce565b603d60f81b60018303525b50505050508093505050505b919050565b61267b848484846040516024016125f99493929190613d01565b6040516020818303038152906040527fd5cf17d0000000000000000000000000000000000000000000000000000000007bffffffffffffffffffffffffffffffffffffffffffffffffffffffff19166020820180517bffffffffffffffffffffffffffffffffffffffffffffffffffffffff83818316178352505050506127e8565b50505050565b6127198282604051602401612697929190613db5565b6040516020818303038152906040527f9710a9d0000000000000000000000000000000000000000000000000000000007bffffffffffffffffffffffffffffffffffffffffffffffffffffffff19166020820180517bffffffffffffffffffffffffffffffffffffffffffffffffffffffff83818316178352505050506127e8565b5050565b600081600001549050919050565b6127458282604051806020016040528060008152506129ad565b5050565b6127e383838360405160240161276193929190613de5565b6040516020818303038152906040527f969cdd03000000000000000000000000000000000000000000000000000000007bffffffffffffffffffffffffffffffffffffffffffffffffffffffff19166020820180517bffffffffffffffffffffffffffffffffffffffffffffffffffffffff83818316178352505050506127e8565b505050565b60008151905060006a636f6e736f6c652e6c6f679050602083016000808483855afa5050505050565b505050565b60006128378473ffffffffffffffffffffffffffffffffffffffff16612a08565b156129a0578373ffffffffffffffffffffffffffffffffffffffff1663150b7a02612860611ccf565b8786866040518563ffffffff1660e01b81526004016128829493929190613bc5565b602060405180830381600087803b15801561289c57600080fd5b505af19250505080156128cd57506040513d601f19601f820116820180604052508101906128ca9190612f8b565b60015b612950573d80600081146128fd576040519150601f19603f3d011682016040523d82523d6000602084013e612902565b606091505b50600081511415612948576040517f08c379a000000000000000000000000000000000000000000000000000000000815260040161293f90613e23565b60405180910390fd5b805181602001fd5b63150b7a0260e01b7bffffffffffffffffffffffffffffffffffffffffffffffffffffffff1916817bffffffffffffffffffffffffffffffffffffffffffffffffffffffff1916149150506129a5565b600190505b949350505050565b6129b78383612a1b565b6129c46000848484612816565b612a03576040517f08c379a00000000000000000000000000000000000000000000000000000000081526004016129fa90613e23565b60405180910390fd5b505050565b600080823b905060008111915050919050565b600073ffffffffffffffffffffffffffffffffffffffff168273ffffffffffffffffffffffffffffffffffffffff161415612a8b576040517f08c379a0000000000000000000000000000000000000000000000000000000008152600401612a8290613f63565b60405180910390fd5b612a9481611c63565b15612ad4576040517f08c379a0000000000000000000000000000000000000000000000000000000008152600401612acb90613e63565b60405180910390fd5b612ae060008383612811565b6001600360008473ffffffffffffffffffffffffffffffffffffffff1673ffffffffffffffffffffffffffffffffffffffff1681526020019081526020016000206000828254612b3091906141da565b92505081905550816002600083815260200190815260200160002060006101000a81548173ffffffffffffffffffffffffffffffffffffffff021916908373ffffffffffffffffffffffffffffffffffffffff160217905550808273ffffffffffffffffffffffffffffffffffffffff16600073ffffffffffffffffffffffffffffffffffffffff167fddf252ad1be2c89b69c2b068fc378daa952ba7f163c4a11628f55a4df523b3ef60405160405180910390a45050565b6040518060a0016040528060608152602001606081526020016000815260200160008152602001600081525090565b6040518060a0016040528060008152602001606081526020016060815260200160008152602001600081525090565b828054612c53906143a5565b90600052602060002090601f016020900481019282612c755760008555612cbc565b82601f10612c8e57805160ff1916838001178555612cbc565b82800160010185558215612cbc579182015b82811115612cbb578251825591602001919060010190612ca0565b5b509050612cc99190612ccd565b5090565b5b80821115612ce6576000816000905550600101612cce565b5090565b6000612cfd612cf88461411d565b6140ec565b905082815260208101848484011115612d1557600080fd5b612d20848285614363565b509392505050565b600081359050612d378161451e565b92915050565b600081359050612d4c81614535565b92915050565b600081359050612d618161454c565b92915050565b600081519050612d768161454c565b92915050565b600082601f830112612d8d57600080fd5b8135612d9d848260208601612cea565b91505092915050565b600081359050612db581614563565b92915050565b600060208284031215612dcd57600080fd5b6000612ddb84828501612d28565b91505092915050565b60008060408385031215612df757600080fd5b6000612e0585828601612d28565b9250506020612e1685828601612d28565b9150509250929050565b600080600060608486031215612e3557600080fd5b6000612e4386828701612d28565b9350506020612e5486828701612d28565b9250506040612e6586828701612da6565b9150509250925092565b60008060008060808587031215612e8557600080fd5b6000612e9387828801612d28565b9450506020612ea487828801612d28565b9350506040612eb587828801612da6565b925050606085013567ffffffffffffffff811115612ed257600080fd5b612ede87828801612d7c565b91505092959194509250565b60008060408385031215612efd57600080fd5b6000612f0b85828601612d28565b9250506020612f1c85828601612d3d565b9150509250929050565b60008060408385031215612f3957600080fd5b6000612f4785828601612d28565b9250506020612f5885828601612da6565b9150509250929050565b600060208284031215612f7457600080fd5b6000612f8284828501612d52565b91505092915050565b600060208284031215612f9d57600080fd5b6000612fab84828501612d67565b91505092915050565b600060208284031215612fc657600080fd5b6000612fd484828501612da6565b91505092915050565b6000612fe983836139e3565b905092915050565b612ffa816142ef565b82525050565b600061300b8261415d565b613015818561418b565b9350836020820285016130278561414d565b8060005b8581101561306357848403895281516130448582612fdd565b945061304f8361417e565b925060208a0199505060018101905061302b565b50829750879550505050505092915050565b61307e81614301565b82525050565b600061308f82614168565b613099818561419c565b93506130a9818560208601614372565b6130b28161450d565b840191505092915050565b60006130c882614173565b6130d281856141ad565b93506130e2818560208601614372565b6130eb8161450d565b840191505092915050565b600061310182614173565b61310b81856141be565b935061311b818560208601614372565b6131248161450d565b840191505092915050565b600061313a82614173565b61314481856141cf565b9350613154818560208601614372565b80840191505092915050565b600061316d600b836141cf565b91507f202d2d204e465420233a200000000000000000000000000000000000000000006000830152600b82019050919050565b60006131ad6032836141be565b91507f4552433732313a207472616e7366657220746f206e6f6e20455243373231526560008301527f63656976657220696d706c656d656e74657200000000000000000000000000006020830152604082019050919050565b60006132136028836141be565b91507f4572726f723a20626f7373206d757374206861766520485020746f206174746160008301527f636b20626f73732e0000000000000000000000000000000000000000000000006020830152604082019050919050565b6000613279601c836141be565b91507f4552433732313a20746f6b656e20616c7265616479206d696e746564000000006000830152602082019050919050565b60006132b96024836141be565b91507f4552433732313a207472616e7366657220746f20746865207a65726f2061646460008301527f72657373000000000000000000000000000000000000000000000000000000006020830152604082019050919050565b600061331f6019836141be565b91507f4552433732313a20617070726f766520746f2063616c6c6572000000000000006000830152602082019050919050565b600061335f602c836141be565b91507f4552433732313a206f70657261746f7220717565727920666f72206e6f6e657860008301527f697374656e7420746f6b656e00000000000000000000000000000000000000006020830152604082019050919050565b60006133c56038836141be565b91507f4552433732313a20617070726f76652063616c6c6572206973206e6f74206f7760008301527f6e6572206e6f7220617070726f76656420666f7220616c6c00000000000000006020830152604082019050919050565b600061342b602a836141be565b91507f4552433732313a2062616c616e636520717565727920666f7220746865207a6560008301527f726f2061646472657373000000000000000000000000000000000000000000006020830152604082019050919050565b60006134916029836141be565b91507f4552433732313a206f776e657220717565727920666f72206e6f6e657869737460008301527f656e7420746f6b656e00000000000000000000000000000000000000000000006020830152604082019050919050565b60006134f76062836141cf565b91507f222c20226465736372697074696f6e223a20225468697320697320616e204e4660008301527f542074686174206c6574732070656f706c6520706c617920696e20746865206760208301527f616d65204d657461766572736520536c6179657221222c2022696d616765223a60408301527f20220000000000000000000000000000000000000000000000000000000000006060830152606282019050919050565b60006135a9602d836141be565b91507f4572726f723a20636861726163746572206d757374206861766520485020746f60008301527f2061747461636b20626f73732e000000000000000000000000000000000000006020830152604082019050919050565b600061360f6004836141cf565b91507f7d205d7d000000000000000000000000000000000000000000000000000000006000830152600482019050919050565b600061364f6020836141be565b91507f4552433732313a206d696e7420746f20746865207a65726f20616464726573736000830152602082019050919050565b600061368f602c836141be565b91507f4552433732313a20617070726f76656420717565727920666f72206e6f6e657860008301527f697374656e7420746f6b656e00000000000000000000000000000000000000006020830152604082019050919050565b60006136f56029836141be565b91507f4552433732313a207472616e73666572206f6620746f6b656e2074686174206960008301527f73206e6f74206f776e00000000000000000000000000000000000000000000006020830152604082019050919050565b600061375b600a836141cf565b91507f7b226e616d65223a2022000000000000000000000000000000000000000000006000830152600a82019050919050565b600061379b6021836141be565b91507f4552433732313a20617070726f76616c20746f2063757272656e74206f776e6560008301527f72000000000000000000000000000000000000000000000000000000000000006020830152604082019050919050565b6000613801601d836141cf565b91507f646174613a6170706c69636174696f6e2f6a736f6e3b6261736536342c0000006000830152601d82019050919050565b60006138416031836141be565b91507f4552433732313a207472616e736665722063616c6c6572206973206e6f74206f60008301527f776e6572206e6f7220617070726f7665640000000000000000000000000000006020830152604082019050919050565b60006138a7603d836141cf565b91507f222c202261747472696275746573223a205b207b202274726169745f7479706560008301527f223a20224865616c746820506f696e7473222c202276616c7565223a200000006020830152603d82019050919050565b600061390d602d836141cf565b91507f7d2c207b202274726169745f74797065223a202241747461636b2044616d616760008301527f65222c202276616c7565223a20000000000000000000000000000000000000006020830152602d82019050919050565b600060a083016000830151848203600086015261398382826130bd565b9150506020830151848203602086015261399d82826130bd565b91505060408301516139b26040860182613add565b5060608301516139c56060860182613add565b5060808301516139d86080860182613add565b508091505092915050565b600060a0830160008301516139fb6000860182613add565b5060208301518482036020860152613a1382826130bd565b91505060408301518482036040860152613a2d82826130bd565b9150506060830151613a426060860182613add565b506080830151613a556080860182613add565b508091505092915050565b600060a083016000830151613a786000860182613add565b5060208301518482036020860152613a9082826130bd565b91505060408301518482036040860152613aaa82826130bd565b9150506060830151613abf6060860182613add565b506080830151613ad26080860182613add565b508091505092915050565b613ae681614359565b82525050565b613af581614359565b82525050565b6000613b068261374e565b9150613b12828861312f565b9150613b1d82613160565b9150613b29828761312f565b9150613b34826134ea565b9150613b40828661312f565b9150613b4b8261389a565b9150613b57828561312f565b9150613b6282613900565b9150613b6e828461312f565b9150613b7982613602565b91508190509695505050505050565b6000613b93826137f4565b9150613b9f828461312f565b915081905092915050565b6000602082019050613bbf6000830184612ff1565b92915050565b6000608082019050613bda6000830187612ff1565b613be76020830186612ff1565b613bf46040830185613aec565b8181036060830152613c068184613084565b905095945050505050565b6000606082019050613c266000830186612ff1565b613c336020830185613aec565b613c406040830184613aec565b949350505050565b60006020820190508181036000830152613c628184613000565b905092915050565b6000602082019050613c7f6000830184613075565b92915050565b60006020820190508181036000830152613c9f81846130f6565b905092915050565b60006080820190508181036000830152613cc181876130f6565b90508181036020830152613cd581866130f6565b9050613ce46040830185613aec565b8181036060830152613cf681846130f6565b905095945050505050565b60006080820190508181036000830152613d1b81876130f6565b90508181036020830152613d2f81866130f6565b9050613d3e6040830185613aec565b613d4b6060830184613aec565b95945050505050565b600060a0820190508181036000830152613d6e81886130f6565b90508181036020830152613d8281876130f6565b9050613d916040830186613aec565b613d9e6060830185613aec565b613dab6080830184613aec565b9695505050505050565b60006040820190508181036000830152613dcf81856130f6565b9050613dde6020830184613aec565b9392505050565b60006060820190508181036000830152613dff81866130f6565b9050613e0e6020830185613aec565b613e1b6040830184613aec565b949350505050565b60006020820190508181036000830152613e3c816131a0565b9050919050565b60006020820190508181036000830152613e5c81613206565b9050919050565b60006020820190508181036000830152613e7c8161326c565b9050919050565b60006020820190508181036000830152613e9c816132ac565b9050919050565b60006020820190508181036000830152613ebc81613312565b9050919050565b60006020820190508181036000830152613edc81613352565b9050919050565b60006020820190508181036000830152613efc816133b8565b9050919050565b60006020820190508181036000830152613f1c8161341e565b9050919050565b60006020820190508181036000830152613f3c81613484565b9050919050565b60006020820190508181036000830152613f5c8161359c565b9050919050565b60006020820190508181036000830152613f7c81613642565b9050919050565b60006020820190508181036000830152613f9c81613682565b9050919050565b60006020820190508181036000830152613fbc816136e8565b9050919050565b60006020820190508181036000830152613fdc8161378e565b9050919050565b60006020820190508181036000830152613ffc81613834565b9050919050565b6000602082019050818103600083015261401d8184613966565b905092915050565b6000602082019050818103600083015261403f8184613a60565b905092915050565b600060208201905061405c6000830184613aec565b92915050565b600060a0820190506140776000830188613aec565b818103602083015261408981876130f6565b9050818103604083015261409d81866130f6565b90506140ac6060830185613aec565b6140b96080830184613aec565b9695505050505050565b60006040820190506140d86000830185613aec565b6140e56020830184613aec565b9392505050565b6000604051905081810181811067ffffffffffffffff82111715614113576141126144de565b5b8060405250919050565b600067ffffffffffffffff821115614138576141376144de565b5b601f19601f8301169050602081019050919050565b6000819050602082019050919050565b600081519050919050565b600081519050919050565b600081519050919050565b6000602082019050919050565b600082825260208201905092915050565b600082825260208201905092915050565b600082825260208201905092915050565b600082825260208201905092915050565b600081905092915050565b60006141e582614359565b91506141f083614359565b9250827fffffffffffffffffffffffffffffffffffffffffffffffffffffffffffffffff0382111561422557614224614451565b5b828201905092915050565b600061423b82614359565b915061424683614359565b92508261425657614255614480565b5b828204905092915050565b600061426c82614359565b915061427783614359565b9250817fffffffffffffffffffffffffffffffffffffffffffffffffffffffffffffffff04831182151516156142b0576142af614451565b5b828202905092915050565b60006142c682614359565b91506142d183614359565b9250828210156142e4576142e3614451565b5b828203905092915050565b60006142fa82614339565b9050919050565b60008115159050919050565b60007fffffffff0000000000000000000000000000000000000000000000000000000082169050919050565b600073ffffffffffffffffffffffffffffffffffffffff82169050919050565b6000819050919050565b82818337600083830152505050565b60005b83811015614390578082015181840152602081019050614375565b8381111561439f576000848401525b50505050565b600060028204905060018216806143bd57607f821691505b602082108114156143d1576143d06144af565b5b50919050565b60006143e282614359565b91507fffffffffffffffffffffffffffffffffffffffffffffffffffffffffffffffff82141561441557614414614451565b5b600182019050919050565b600061442b82614359565b915061443683614359565b92508261444657614445614480565b5b828206905092915050565b7f4e487b7100000000000000000000000000000000000000000000000000000000600052601160045260246000fd5b7f4e487b7100000000000000000000000000000000000000000000000000000000600052601260045260246000fd5b7f4e487b7100000000000000000000000000000000000000000000000000000000600052602260045260246000fd5b7f4e487b7100000000000000000000000000000000000000000000000000000000600052604160045260246000fd5b6000601f19601f8301169050919050565b614527816142ef565b811461453257600080fd5b50565b61453e81614301565b811461454957600080fd5b50565b6145558161430d565b811461456057600080fd5b50565b61456c81614359565b811461457757600080fd5b5056fe506c617965722061747461636b656420626f73732e204e657720626f73732068703a2025734142434445464748494a4b4c4d4e4f505152535455565758595a6162636465666768696a6b6c6d6e6f707172737475767778797a303132333435363738392b2f426f73732061747461636b656420706c617965722e204e657720706c617965722068703a2025730a4d696e746564204e465420772f20746f6b656e496420257320616e6420636861726163746572496e6465782025730a506c6179657220772f206368617261637465722025732061626f757420746f2061747461636b2e2048617320257320485020616e64202573204144a2646970667358221220b8af517f96a5c0b63fbf88f1f6f2e6d5d63f2270f444c9a0b56bd25759f61d0d64736f6c63430008000033446f6e6520696e697469616c697a696e6720257320772f2048502025732c20696d67202573446f6e6520696e697469616c697a696e6720626f737320257320772f2048502025732c20696d67202573",
  "linkReferences": {},
  "deployedLinkReferences": {}
}